{
  "_format": "hh-sol-artifact-1",
  "contractName": "TeamVesting",
  "sourceName": "contracts/TeamVesting.sol",
  "abi": [
    {
      "inputs": [
        {
          "internalType": "contract IERC20",
          "name": "_token",
          "type": "address"
        },
        {
          "internalType": "uint256",
          "name": "_startTime",
          "type": "uint256"
        }
      ],
      "stateMutability": "nonpayable",
      "type": "constructor"
    },
    {
      "anonymous": false,
      "inputs": [
        {
          "indexed": true,
          "internalType": "address",
          "name": "investor",
          "type": "address"
        },
        {
          "indexed": false,
          "internalType": "uint256",
          "name": "remainingCoins",
          "type": "uint256"
        }
      ],
      "name": "InvestorModified",
      "type": "event"
    },
    {
      "anonymous": false,
      "inputs": [
        {
          "indexed": true,
          "internalType": "address",
          "name": "previousOwner",
          "type": "address"
        },
        {
          "indexed": true,
          "internalType": "address",
          "name": "newOwner",
          "type": "address"
        }
      ],
      "name": "OwnershipTransferred",
      "type": "event"
    },
    {
      "anonymous": false,
      "inputs": [
        {
          "indexed": true,
          "internalType": "address",
          "name": "receiver",
          "type": "address"
        },
        {
          "indexed": false,
          "internalType": "uint256",
          "name": "withdrawnAmount",
          "type": "uint256"
        },
        {
          "indexed": false,
          "internalType": "uint256",
          "name": "remainingCoins",
          "type": "uint256"
        }
      ],
      "name": "Withdraw",
      "type": "event"
    },
    {
      "inputs": [
        {
          "internalType": "address",
          "name": "_investor",
          "type": "address"
        },
        {
          "internalType": "uint256",
          "name": "_monthlyAllowance",
          "type": "uint256"
        }
      ],
      "name": "addInvestor",
      "outputs": [],
      "stateMutability": "nonpayable",
      "type": "function"
    },
    {
      "inputs": [
        {
          "internalType": "address",
          "name": "",
          "type": "address"
        }
      ],
      "name": "balances",
      "outputs": [
        {
          "internalType": "uint256",
          "name": "remainingCoins",
          "type": "uint256"
        },
        {
          "internalType": "bool",
          "name": "claimedBonus",
          "type": "bool"
        },
        {
          "internalType": "uint256",
          "name": "supply",
          "type": "uint256"
        }
      ],
      "stateMutability": "view",
      "type": "function"
    },
    {
      "inputs": [
        {
          "internalType": "address",
          "name": "_investor",
          "type": "address"
        }
      ],
      "name": "disableInvestor",
      "outputs": [],
      "stateMutability": "nonpayable",
      "type": "function"
    },
    {
      "inputs": [],
      "name": "getAvailableAmount",
      "outputs": [
        {
          "internalType": "uint256",
          "name": "",
          "type": "uint256"
        }
      ],
      "stateMutability": "view",
      "type": "function"
    },
    {
      "inputs": [],
      "name": "getTotalReleased",
      "outputs": [
        {
          "internalType": "uint256",
          "name": "",
          "type": "uint256"
        }
      ],
      "stateMutability": "view",
      "type": "function"
    },
    {
      "inputs": [],
      "name": "owner",
      "outputs": [
        {
          "internalType": "address",
          "name": "",
          "type": "address"
        }
      ],
      "stateMutability": "view",
      "type": "function"
    },
    {
      "inputs": [],
      "name": "renounceOwnership",
      "outputs": [],
      "stateMutability": "nonpayable",
      "type": "function"
    },
    {
      "inputs": [],
      "name": "startTime",
      "outputs": [
        {
          "internalType": "uint256",
          "name": "",
          "type": "uint256"
        }
      ],
      "stateMutability": "view",
      "type": "function"
    },
    {
      "inputs": [
        {
          "internalType": "address",
          "name": "newOwner",
          "type": "address"
        }
      ],
      "name": "transferOwnership",
      "outputs": [],
      "stateMutability": "nonpayable",
      "type": "function"
    },
    {
      "inputs": [],
      "name": "withdraw",
      "outputs": [],
      "stateMutability": "nonpayable",
      "type": "function"
    }
  ],
  "bytecode": "0x60a06040523480156200001157600080fd5b5060405162001e5438038062001e548339818101604052810190620000379190620002d6565b620000576200004b6200015160201b60201c565b6200015960201b60201c565b600073ffffffffffffffffffffffffffffffffffffffff168273ffffffffffffffffffffffffffffffffffffffff1603620000c9576040517f08c379a0000000000000000000000000000000000000000000000000000000008152600401620000c0906200037e565b60405180910390fd5b4281116200010e576040517f08c379a00000000000000000000000000000000000000000000000000000000081526004016200010590620003f0565b60405180910390fd5b8173ffffffffffffffffffffffffffffffffffffffff1660808173ffffffffffffffffffffffffffffffffffffffff168152505080600181905550505062000412565b600033905090565b60008060009054906101000a900473ffffffffffffffffffffffffffffffffffffffff169050816000806101000a81548173ffffffffffffffffffffffffffffffffffffffff021916908373ffffffffffffffffffffffffffffffffffffffff1602179055508173ffffffffffffffffffffffffffffffffffffffff168173ffffffffffffffffffffffffffffffffffffffff167f8be0079c531659141344cd1fd0a4f28419497f9722a3daafe3b4186f6b6457e060405160405180910390a35050565b600080fd5b600073ffffffffffffffffffffffffffffffffffffffff82169050919050565b60006200024f8262000222565b9050919050565b6000620002638262000242565b9050919050565b620002758162000256565b81146200028157600080fd5b50565b60008151905062000295816200026a565b92915050565b6000819050919050565b620002b0816200029b565b8114620002bc57600080fd5b50565b600081519050620002d081620002a5565b92915050565b60008060408385031215620002f057620002ef6200021d565b5b6000620003008582860162000284565b92505060206200031385828601620002bf565b9150509250929050565b600082825260208201905092915050565b7f696e76616c69642063757272656e637920616464726573730000000000000000600082015250565b6000620003666018836200031d565b915062000373826200032e565b602082019050919050565b60006020820190508181036000830152620003998162000357565b9050919050565b7f76657374696e672073686f756c6420737461727420696e206675747572650000600082015250565b6000620003d8601e836200031d565b9150620003e582620003a0565b602082019050919050565b600060208201905081810360008301526200040b81620003c9565b9050919050565b608051611a266200042e60003960006103380152611a266000f3fe608060405234801561001057600080fd5b506004361061009e5760003560e01c80637bb476f5116100665780637bb476f5146101255780638da5cb5b14610143578063ec20b45714610161578063f142ca5e1461017d578063f2fde38b146101995761009e565b806327e235e3146100a35780633ccfd60b146100d55780634b14c0ef146100df578063715018a6146100fd57806378e9792514610107575b600080fd5b6100bd60048036038101906100b89190611145565b6101b5565b6040516100cc939291906111a6565b60405180910390f35b6100dd6101ec565b005b6100e76103d5565b6040516100f491906111dd565b60405180910390f35b6101056104ef565b005b61010f610503565b60405161011c91906111dd565b60405180910390f35b61012d610509565b60405161013a91906111dd565b60405180910390f35b61014b6105f7565b6040516101589190611207565b60405180910390f35b61017b6004803603810190610176919061124e565b610620565b005b61019760048036038101906101929190611145565b6107a7565b005b6101b360048036038101906101ae9190611145565b61090f565b005b60026020528060005260406000206000915090508060000154908060010160009054906101000a900460ff16908060020154905083565b6000600260003373ffffffffffffffffffffffffffffffffffffffff1673ffffffffffffffffffffffffffffffffffffffff1681526020019081526020016000209050600154421015610274576040517f08c379a000000000000000000000000000000000000000000000000000000000815260040161026b906112eb565b60405180910390fd5b60008160000154116102bb576040517f08c379a00000000000000000000000000000000000000000000000000000000081526004016102b290611357565b60405180910390fd5b60006102c5610992565b905060006102dc82846000015485600201546109cd565b90506102f5818460000154610b0a90919063ffffffff16565b83600001819055508260010160009054906101000a900460ff166103315760018360010160006101000a81548160ff0219169083151502179055505b61037c33827f000000000000000000000000000000000000000000000000000000000000000073ffffffffffffffffffffffffffffffffffffffff16610b209092919063ffffffff16565b3373ffffffffffffffffffffffffffffffffffffffff167ff279e6a1f5e320cca91135676d9cb6e44ca8a08c0b88342bcdb1144f6511b5688285600001546040516103c8929190611377565b60405180910390a2505050565b60006104156040518060400160405280601081526020017f676574546f74616c52656c656173656400000000000000000000000000000000815250610ba6565b6000600260003373ffffffffffffffffffffffffffffffffffffffff1673ffffffffffffffffffffffffffffffffffffffff16815260200190815260200160002060000154600260003373ffffffffffffffffffffffffffffffffffffffff1673ffffffffffffffffffffffffffffffffffffffff168152602001908152602001600020600201546104a791906113cf565b90506104e86040518060400160405280601081526020017f746f74616c52656c65617365642025730000000000000000000000000000000081525082610c3f565b8091505090565b6104f7610cdb565b6105016000610d59565b565b60015481565b60006105496040518060400160405280601281526020017f676574417661696c61626c65416d6f756e740000000000000000000000000000815250610ba6565b6000600260003373ffffffffffffffffffffffffffffffffffffffff1673ffffffffffffffffffffffffffffffffffffffff16815260200190815260200160002090506000610596610992565b90506105d76040518060400160405280600d81526020017f74696d655061737365642025730000000000000000000000000000000000000081525082610c3f565b60006105ec82846000015485600201546109cd565b905080935050505090565b60008060009054906101000a900473ffffffffffffffffffffffffffffffffffffffff16905090565b610628610cdb565b6000600260008473ffffffffffffffffffffffffffffffffffffffff1673ffffffffffffffffffffffffffffffffffffffff16815260200190815260200160002060000154146106ad576040517f08c379a00000000000000000000000000000000000000000000000000000000081526004016106a49061144f565b60405180910390fd5b670de0b6b3a76400006018826106c3919061146f565b6106cd919061146f565b600260008473ffffffffffffffffffffffffffffffffffffffff1673ffffffffffffffffffffffffffffffffffffffff168152602001908152602001600020600001819055508173ffffffffffffffffffffffffffffffffffffffff167f0e8cf5022e5945bf3364b2718570d9532e694e17592c9949ed04ee353cdf8bfc600260008573ffffffffffffffffffffffffffffffffffffffff1673ffffffffffffffffffffffffffffffffffffffff1681526020019081526020016000206000015460405161079b91906111dd565b60405180910390a25050565b6107af610cdb565b6000600260008373ffffffffffffffffffffffffffffffffffffffff1673ffffffffffffffffffffffffffffffffffffffff1681526020019081526020016000206000015411610834576040517f08c379a000000000000000000000000000000000000000000000000000000000815260040161082b906114fd565b60405180910390fd5b6000600260008373ffffffffffffffffffffffffffffffffffffffff1673ffffffffffffffffffffffffffffffffffffffff168152602001908152602001600020600001819055508073ffffffffffffffffffffffffffffffffffffffff167f0e8cf5022e5945bf3364b2718570d9532e694e17592c9949ed04ee353cdf8bfc600260008473ffffffffffffffffffffffffffffffffffffffff1673ffffffffffffffffffffffffffffffffffffffff1681526020019081526020016000206000015460405161090491906111dd565b60405180910390a250565b610917610cdb565b600073ffffffffffffffffffffffffffffffffffffffff168173ffffffffffffffffffffffffffffffffffffffff1603610986576040517f08c379a000000000000000000000000000000000000000000000000000000000815260040161097d9061158f565b60405180910390fd5b61098f81610d59565b50565b60006303c267006001546109a691906115af565b4210156109c257600154426109bb91906113cf565b90506109ca565b6303c2670090505b90565b6000610a0d6040518060400160405280601281526020017f676574417661696c61626c65546f6b656e730000000000000000000000000000815250610ba6565b610a4c6040518060400160405280600e81526020017f5f74696d6550617373656420257300000000000000000000000000000000000081525085610c3f565b610a8b6040518060400160405280601281526020017f5f72656d61696e696e67436f696e73202573000000000000000000000000000081525084610c3f565b610aca6040518060400160405280600a81526020017f5f737570706c792025730000000000000000000000000000000000000000000081525083610c3f565b60006303c267008386610add919061146f565b610ae79190611612565b90508383610af591906113cf565b81610b0091906113cf565b9150509392505050565b60008183610b1891906113cf565b905092915050565b610ba18363a9059cbb60e01b8484604051602401610b3f929190611643565b604051602081830303815290604052907bffffffffffffffffffffffffffffffffffffffffffffffffffffffff19166020820180517bffffffffffffffffffffffffffffffffffffffffffffffffffffffff8381831617835250505050610e1d565b505050565b610c3c81604051602401610bba91906116eb565b6040516020818303038152906040527f41304fac000000000000000000000000000000000000000000000000000000007bffffffffffffffffffffffffffffffffffffffffffffffffffffffff19166020820180517bffffffffffffffffffffffffffffffffffffffffffffffffffffffff8381831617835250505050610ee4565b50565b610cd78282604051602401610c5592919061170d565b6040516020818303038152906040527fb60e72cc000000000000000000000000000000000000000000000000000000007bffffffffffffffffffffffffffffffffffffffffffffffffffffffff19166020820180517bffffffffffffffffffffffffffffffffffffffffffffffffffffffff8381831617835250505050610ee4565b5050565b610ce3610f0d565b73ffffffffffffffffffffffffffffffffffffffff16610d016105f7565b73ffffffffffffffffffffffffffffffffffffffff1614610d57576040517f08c379a0000000000000000000000000000000000000000000000000000000008152600401610d4e90611789565b60405180910390fd5b565b60008060009054906101000a900473ffffffffffffffffffffffffffffffffffffffff169050816000806101000a81548173ffffffffffffffffffffffffffffffffffffffff021916908373ffffffffffffffffffffffffffffffffffffffff1602179055508173ffffffffffffffffffffffffffffffffffffffff168173ffffffffffffffffffffffffffffffffffffffff167f8be0079c531659141344cd1fd0a4f28419497f9722a3daafe3b4186f6b6457e060405160405180910390a35050565b6000610e7f826040518060400160405280602081526020017f5361666545524332303a206c6f772d6c6576656c2063616c6c206661696c65648152508573ffffffffffffffffffffffffffffffffffffffff16610f159092919063ffffffff16565b9050600081511115610edf5780806020019051810190610e9f91906117d5565b610ede576040517f08c379a0000000000000000000000000000000000000000000000000000000008152600401610ed590611874565b60405180910390fd5b5b505050565b60008151905060006a636f6e736f6c652e6c6f679050602083016000808483855afa5050505050565b600033905090565b6060610f248484600085610f2d565b90509392505050565b606082471015610f72576040517f08c379a0000000000000000000000000000000000000000000000000000000008152600401610f6990611906565b60405180910390fd5b6000808673ffffffffffffffffffffffffffffffffffffffff168587604051610f9b919061196d565b60006040518083038185875af1925050503d8060008114610fd8576040519150601f19603f3d011682016040523d82523d6000602084013e610fdd565b606091505b5091509150610fee87838387610ffa565b92505050949350505050565b6060831561105c576000835103611054576110148561106f565b611053576040517f08c379a000000000000000000000000000000000000000000000000000000000815260040161104a906119d0565b60405180910390fd5b5b829050611067565b6110668383611092565b5b949350505050565b6000808273ffffffffffffffffffffffffffffffffffffffff163b119050919050565b6000825111156110a55781518083602001fd5b806040517f08c379a00000000000000000000000000000000000000000000000000000000081526004016110d991906116eb565b60405180910390fd5b600080fd5b600073ffffffffffffffffffffffffffffffffffffffff82169050919050565b6000611112826110e7565b9050919050565b61112281611107565b811461112d57600080fd5b50565b60008135905061113f81611119565b92915050565b60006020828403121561115b5761115a6110e2565b5b600061116984828501611130565b91505092915050565b6000819050919050565b61118581611172565b82525050565b60008115159050919050565b6111a08161118b565b82525050565b60006060820190506111bb600083018661117c565b6111c86020830185611197565b6111d5604083018461117c565b949350505050565b60006020820190506111f2600083018461117c565b92915050565b61120181611107565b82525050565b600060208201905061121c60008301846111f8565b92915050565b61122b81611172565b811461123657600080fd5b50565b60008135905061124881611222565b92915050565b60008060408385031215611265576112646110e2565b5b600061127385828601611130565b925050602061128485828601611239565b9150509250929050565b600082825260208201905092915050565b7f76657374696e67206861736e7420737461727465642079657400000000000000600082015250565b60006112d560198361128e565b91506112e08261129f565b602082019050919050565b60006020820190508181036000830152611304816112c8565b9050919050565b7f7573657220686173206e6f20616c6c6f636174696f6e00000000000000000000600082015250565b600061134160168361128e565b915061134c8261130b565b602082019050919050565b6000602082019050818103600083015261137081611334565b9050919050565b600060408201905061138c600083018561117c565b611399602083018461117c565b9392505050565b7f4e487b7100000000000000000000000000000000000000000000000000000000600052601160045260246000fd5b60006113da82611172565b91506113e583611172565b92508282039050818111156113fd576113fc6113a0565b5b92915050565b7f696e766573746f7220616c72656164792068617320616c6c6f636174696f6e00600082015250565b6000611439601f8361128e565b915061144482611403565b602082019050919050565b600060208201905081810360008301526114688161142c565b9050919050565b600061147a82611172565b915061148583611172565b925082820261149381611172565b915082820484148315176114aa576114a96113a0565b5b5092915050565b7f696e766573746f7220616c72656164792064697361626c656400000000000000600082015250565b60006114e760198361128e565b91506114f2826114b1565b602082019050919050565b60006020820190508181036000830152611516816114da565b9050919050565b7f4f776e61626c653a206e6577206f776e657220697320746865207a65726f206160008201527f6464726573730000000000000000000000000000000000000000000000000000602082015250565b600061157960268361128e565b91506115848261151d565b604082019050919050565b600060208201905081810360008301526115a88161156c565b9050919050565b60006115ba82611172565b91506115c583611172565b92508282019050808211156115dd576115dc6113a0565b5b92915050565b7f4e487b7100000000000000000000000000000000000000000000000000000000600052601260045260246000fd5b600061161d82611172565b915061162883611172565b925082611638576116376115e3565b5b828204905092915050565b600060408201905061165860008301856111f8565b611665602083018461117c565b9392505050565b600081519050919050565b60005b8381101561169557808201518184015260208101905061167a565b60008484015250505050565b6000601f19601f8301169050919050565b60006116bd8261166c565b6116c7818561128e565b93506116d7818560208601611677565b6116e0816116a1565b840191505092915050565b6000602082019050818103600083015261170581846116b2565b905092915050565b6000604082019050818103600083015261172781856116b2565b9050611736602083018461117c565b9392505050565b7f4f776e61626c653a2063616c6c6572206973206e6f7420746865206f776e6572600082015250565b600061177360208361128e565b915061177e8261173d565b602082019050919050565b600060208201905081810360008301526117a281611766565b9050919050565b6117b28161118b565b81146117bd57600080fd5b50565b6000815190506117cf816117a9565b92915050565b6000602082840312156117eb576117ea6110e2565b5b60006117f9848285016117c0565b91505092915050565b7f5361666545524332303a204552433230206f7065726174696f6e20646964206e60008201527f6f74207375636365656400000000000000000000000000000000000000000000602082015250565b600061185e602a8361128e565b915061186982611802565b604082019050919050565b6000602082019050818103600083015261188d81611851565b9050919050565b7f416464726573733a20696e73756666696369656e742062616c616e636520666f60008201527f722063616c6c0000000000000000000000000000000000000000000000000000602082015250565b60006118f060268361128e565b91506118fb82611894565b604082019050919050565b6000602082019050818103600083015261191f816118e3565b9050919050565b600081519050919050565b600081905092915050565b600061194782611926565b6119518185611931565b9350611961818560208601611677565b80840191505092915050565b6000611979828461193c565b915081905092915050565b7f416464726573733a2063616c6c20746f206e6f6e2d636f6e7472616374000000600082015250565b60006119ba601d8361128e565b91506119c582611984565b602082019050919050565b600060208201905081810360008301526119e9816119ad565b905091905056fea26469706673582212203e9872772dd7b80abb6b3b2a115c68e8d0bfb6780cee3a5238078cb54df475ef64736f6c63430008110033",
  "linkReferences": {},
  "deployedLinkReferences": {}
}