{
  "_format": "hh-sol-artifact-1",
  "contractName": "TeamVesting",
  "sourceName": "contracts/TeamVesting.sol",
  "abi": [
    {
      "inputs": [
        {
          "internalType": "contract IERC20",
          "name": "_token",
          "type": "address"
        },
        {
          "internalType": "uint256",
          "name": "_startTime",
          "type": "uint256"
        }
      ],
      "stateMutability": "nonpayable",
      "type": "constructor"
    },
    {
      "anonymous": false,
      "inputs": [
        {
          "indexed": true,
          "internalType": "address",
          "name": "investor",
          "type": "address"
        },
        {
          "indexed": false,
          "internalType": "uint256",
          "name": "remainingCoins",
          "type": "uint256"
        }
      ],
      "name": "InvestorModified",
      "type": "event"
    },
    {
      "anonymous": false,
      "inputs": [
        {
          "indexed": true,
          "internalType": "address",
          "name": "previousOwner",
          "type": "address"
        },
        {
          "indexed": true,
          "internalType": "address",
          "name": "newOwner",
          "type": "address"
        }
      ],
      "name": "OwnershipTransferred",
      "type": "event"
    },
    {
      "anonymous": false,
      "inputs": [
        {
          "indexed": true,
          "internalType": "address",
          "name": "receiver",
          "type": "address"
        },
        {
          "indexed": false,
          "internalType": "uint256",
          "name": "withdrawnAmount",
          "type": "uint256"
        },
        {
          "indexed": false,
          "internalType": "uint256",
          "name": "remainingCoins",
          "type": "uint256"
        }
      ],
      "name": "Withdraw",
      "type": "event"
    },
    {
      "inputs": [
        {
          "internalType": "address",
          "name": "_investor",
          "type": "address"
        },
        {
          "internalType": "uint256",
          "name": "_monthlyAllowance",
          "type": "uint256"
        },
        {
          "internalType": "uint256",
          "name": "_daysDuration",
          "type": "uint256"
        }
      ],
      "name": "addInvestor",
      "outputs": [],
      "stateMutability": "nonpayable",
      "type": "function"
    },
    {
      "inputs": [
        {
          "internalType": "address",
          "name": "",
          "type": "address"
        }
      ],
      "name": "balances",
      "outputs": [
        {
          "internalType": "uint256",
          "name": "remainingCoins",
          "type": "uint256"
        },
        {
          "internalType": "uint256",
          "name": "supply",
          "type": "uint256"
        },
        {
          "internalType": "uint256",
          "name": "duration",
          "type": "uint256"
        }
      ],
      "stateMutability": "view",
      "type": "function"
    },
    {
      "inputs": [
        {
          "internalType": "address",
          "name": "_investor",
          "type": "address"
        }
      ],
      "name": "disableInvestor",
      "outputs": [],
      "stateMutability": "nonpayable",
      "type": "function"
    },
    {
      "inputs": [],
      "name": "getAvailableAmount",
      "outputs": [
        {
          "internalType": "uint256",
          "name": "",
          "type": "uint256"
        }
      ],
      "stateMutability": "view",
      "type": "function"
    },
    {
      "inputs": [],
      "name": "getDuration",
      "outputs": [
        {
          "internalType": "uint256",
          "name": "",
          "type": "uint256"
        }
      ],
      "stateMutability": "view",
      "type": "function"
    },
    {
      "inputs": [],
      "name": "getTotalReleased",
      "outputs": [
        {
          "internalType": "uint256",
          "name": "",
          "type": "uint256"
        }
      ],
      "stateMutability": "view",
      "type": "function"
    },
    {
      "inputs": [
        {
          "internalType": "address",
          "name": "_investor",
          "type": "address"
        },
        {
          "internalType": "uint256",
          "name": "_monthlyAllowance",
          "type": "uint256"
        }
      ],
      "name": "modifyInvestor",
      "outputs": [],
      "stateMutability": "nonpayable",
      "type": "function"
    },
    {
      "inputs": [],
      "name": "owner",
      "outputs": [
        {
          "internalType": "address",
          "name": "",
          "type": "address"
        }
      ],
      "stateMutability": "view",
      "type": "function"
    },
    {
      "inputs": [],
      "name": "renounceOwnership",
      "outputs": [],
      "stateMutability": "nonpayable",
      "type": "function"
    },
    {
      "inputs": [],
      "name": "startTime",
      "outputs": [
        {
          "internalType": "uint256",
          "name": "",
          "type": "uint256"
        }
      ],
      "stateMutability": "view",
      "type": "function"
    },
    {
      "inputs": [
        {
          "internalType": "address",
          "name": "newOwner",
          "type": "address"
        }
      ],
      "name": "transferOwnership",
      "outputs": [],
      "stateMutability": "nonpayable",
      "type": "function"
    },
    {
      "inputs": [],
      "name": "withdraw",
      "outputs": [],
      "stateMutability": "nonpayable",
      "type": "function"
    }
  ],
  "bytecode": "0x60a06040523480156200001157600080fd5b506040516200243b3803806200243b8339818101604052810190620000379190620002d6565b620000576200004b6200015160201b60201c565b6200015960201b60201c565b600073ffffffffffffffffffffffffffffffffffffffff168273ffffffffffffffffffffffffffffffffffffffff1603620000c9576040517f08c379a0000000000000000000000000000000000000000000000000000000008152600401620000c0906200037e565b60405180910390fd5b4281116200010e576040517f08c379a00000000000000000000000000000000000000000000000000000000081526004016200010590620003f0565b60405180910390fd5b8173ffffffffffffffffffffffffffffffffffffffff1660808173ffffffffffffffffffffffffffffffffffffffff168152505080600181905550505062000412565b600033905090565b60008060009054906101000a900473ffffffffffffffffffffffffffffffffffffffff169050816000806101000a81548173ffffffffffffffffffffffffffffffffffffffff021916908373ffffffffffffffffffffffffffffffffffffffff1602179055508173ffffffffffffffffffffffffffffffffffffffff168173ffffffffffffffffffffffffffffffffffffffff167f8be0079c531659141344cd1fd0a4f28419497f9722a3daafe3b4186f6b6457e060405160405180910390a35050565b600080fd5b600073ffffffffffffffffffffffffffffffffffffffff82169050919050565b60006200024f8262000222565b9050919050565b6000620002638262000242565b9050919050565b620002758162000256565b81146200028157600080fd5b50565b60008151905062000295816200026a565b92915050565b6000819050919050565b620002b0816200029b565b8114620002bc57600080fd5b50565b600081519050620002d081620002a5565b92915050565b60008060408385031215620002f057620002ef6200021d565b5b6000620003008582860162000284565b92505060206200031385828601620002bf565b9150509250929050565b600082825260208201905092915050565b7f696e76616c69642063757272656e637920616464726573730000000000000000600082015250565b6000620003666018836200031d565b915062000373826200032e565b602082019050919050565b60006020820190508181036000830152620003998162000357565b9050919050565b7f76657374696e672073686f756c6420737461727420696e206675747572650000600082015250565b6000620003d8601e836200031d565b9150620003e582620003a0565b602082019050919050565b600060208201905081810360008301526200040b81620003c9565b9050919050565b60805161200d6200042e6000396000610351015261200d6000f3fe608060405234801561001057600080fd5b50600436106100b45760003560e01c80638da5cb5b116100715780638da5cb5b14610159578063ad2e8c9b14610177578063b34c60da14610195578063ced84a71146101b1578063f142ca5e146101cd578063f2fde38b146101e9576100b4565b806327e235e3146100b95780633ccfd60b146100eb5780634b14c0ef146100f5578063715018a61461011357806378e979251461011d5780637bb476f51461013b575b600080fd5b6100d360048036038101906100ce919061167c565b610205565b6040516100e2939291906116c2565b60405180910390f35b6100f361022f565b005b6100fd6103ee565b60405161010a91906116f9565b60405180910390f35b61011b610508565b005b61012561051c565b60405161013291906116f9565b60405180910390f35b610143610522565b60405161015091906116f9565b60405180910390f35b61016161061a565b60405161016e9190611723565b60405180910390f35b61017f610643565b60405161018c91906116f9565b60405180910390f35b6101af60048036038101906101aa919061176a565b61068d565b005b6101cb60048036038101906101c691906117aa565b6109cf565b005b6101e760048036038101906101e2919061167c565b610c57565b005b61020360048036038101906101fe919061167c565b610e4f565b005b60026020528060005260406000206000915090508060000154908060010154908060020154905083565b6000600260003373ffffffffffffffffffffffffffffffffffffffff1673ffffffffffffffffffffffffffffffffffffffff16815260200190815260200160002090506001544210156102b7576040517f08c379a00000000000000000000000000000000000000000000000000000000081526004016102ae9061185a565b60405180910390fd5b60008160000154116102fe576040517f08c379a00000000000000000000000000000000000000000000000000000000081526004016102f5906118c6565b60405180910390fd5b600061030d8260020154610ed2565b9050600061032982846000015485600101548660020154610f07565b905061034281846000015461104190919063ffffffff16565b836000018190555061039533827f000000000000000000000000000000000000000000000000000000000000000073ffffffffffffffffffffffffffffffffffffffff166110579092919063ffffffff16565b3373ffffffffffffffffffffffffffffffffffffffff167ff279e6a1f5e320cca91135676d9cb6e44ca8a08c0b88342bcdb1144f6511b5688285600001546040516103e19291906118e6565b60405180910390a2505050565b600061042e6040518060400160405280601081526020017f676574546f74616c52656c6561736564000000000000000000000000000000008152506110dd565b6000600260003373ffffffffffffffffffffffffffffffffffffffff1673ffffffffffffffffffffffffffffffffffffffff16815260200190815260200160002060000154600260003373ffffffffffffffffffffffffffffffffffffffff1673ffffffffffffffffffffffffffffffffffffffff168152602001908152602001600020600101546104c0919061193e565b90506105016040518060400160405280601081526020017f746f74616c52656c65617365642025730000000000000000000000000000000081525082611176565b8091505090565b610510611212565b61051a6000611290565b565b60015481565b60006105626040518060400160405280601281526020017f676574417661696c61626c65416d6f756e7400000000000000000000000000008152506110dd565b6000600260003373ffffffffffffffffffffffffffffffffffffffff1673ffffffffffffffffffffffffffffffffffffffff168152602001908152602001600020905060006105b48260020154610ed2565b90506105f56040518060400160405280600d81526020017f74696d655061737365642025730000000000000000000000000000000000000081525082611176565b600061060f82846000015485600101548660020154610f07565b905080935050505090565b60008060009054906101000a900473ffffffffffffffffffffffffffffffffffffffff16905090565b6000600260003373ffffffffffffffffffffffffffffffffffffffff1673ffffffffffffffffffffffffffffffffffffffff16815260200190815260200160002060020154905090565b610695611212565b6000600260008473ffffffffffffffffffffffffffffffffffffffff1673ffffffffffffffffffffffffffffffffffffffff168152602001908152602001600020600001541161071a576040517f08c379a0000000000000000000000000000000000000000000000000000000008152600401610711906119be565b60405180910390fd5b6000610767600260008573ffffffffffffffffffffffffffffffffffffffff1673ffffffffffffffffffffffffffffffffffffffff16815260200190815260200160002060020154610ed2565b9050600061083d82600260008773ffffffffffffffffffffffffffffffffffffffff1673ffffffffffffffffffffffffffffffffffffffff16815260200190815260200160002060000154600260008873ffffffffffffffffffffffffffffffffffffffff1673ffffffffffffffffffffffffffffffffffffffff16815260200190815260200160002060010154600260008973ffffffffffffffffffffffffffffffffffffffff1673ffffffffffffffffffffffffffffffffffffffff16815260200190815260200160002060020154610f07565b9050670de0b6b3a764000060188461085591906119de565b61085f91906119de565b8161086a9190611a20565b600260008673ffffffffffffffffffffffffffffffffffffffff1673ffffffffffffffffffffffffffffffffffffffff16815260200190815260200160002060000181905550600260008573ffffffffffffffffffffffffffffffffffffffff1673ffffffffffffffffffffffffffffffffffffffff16815260200190815260200160002060000154600260008673ffffffffffffffffffffffffffffffffffffffff1673ffffffffffffffffffffffffffffffffffffffff168152602001908152602001600020600101819055508373ffffffffffffffffffffffffffffffffffffffff167f0e8cf5022e5945bf3364b2718570d9532e694e17592c9949ed04ee353cdf8bfc600260008773ffffffffffffffffffffffffffffffffffffffff1673ffffffffffffffffffffffffffffffffffffffff168152602001908152602001600020600001546040516109c191906116f9565b60405180910390a250505050565b6109d7611212565b6000600260008573ffffffffffffffffffffffffffffffffffffffff1673ffffffffffffffffffffffffffffffffffffffff1681526020019081526020016000206000015414610a5c576040517f08c379a0000000000000000000000000000000000000000000000000000000008152600401610a5390611aa0565b60405180910390fd5b670de0b6b3a7640000601883610a7291906119de565b610a7c91906119de565b600260008573ffffffffffffffffffffffffffffffffffffffff1673ffffffffffffffffffffffffffffffffffffffff16815260200190815260200160002060000181905550600260008473ffffffffffffffffffffffffffffffffffffffff1673ffffffffffffffffffffffffffffffffffffffff16815260200190815260200160002060000154600260008573ffffffffffffffffffffffffffffffffffffffff1673ffffffffffffffffffffffffffffffffffffffff168152602001908152602001600020600101819055506103e8603c80601884610b5e91906119de565b610b6891906119de565b610b7291906119de565b610b7c91906119de565b600260008573ffffffffffffffffffffffffffffffffffffffff1673ffffffffffffffffffffffffffffffffffffffff168152602001908152602001600020600201819055508273ffffffffffffffffffffffffffffffffffffffff167f0e8cf5022e5945bf3364b2718570d9532e694e17592c9949ed04ee353cdf8bfc600260008673ffffffffffffffffffffffffffffffffffffffff1673ffffffffffffffffffffffffffffffffffffffff16815260200190815260200160002060000154604051610c4a91906116f9565b60405180910390a2505050565b610c5f611212565b6000600260008373ffffffffffffffffffffffffffffffffffffffff1673ffffffffffffffffffffffffffffffffffffffff1681526020019081526020016000206000015411610ce4576040517f08c379a0000000000000000000000000000000000000000000000000000000008152600401610cdb90611b0c565b60405180910390fd5b6000600260008373ffffffffffffffffffffffffffffffffffffffff1673ffffffffffffffffffffffffffffffffffffffff168152602001908152602001600020600001819055506000600260008373ffffffffffffffffffffffffffffffffffffffff1673ffffffffffffffffffffffffffffffffffffffff168152602001908152602001600020600101819055506000600260008373ffffffffffffffffffffffffffffffffffffffff1673ffffffffffffffffffffffffffffffffffffffff168152602001908152602001600020600201819055508073ffffffffffffffffffffffffffffffffffffffff167f0e8cf5022e5945bf3364b2718570d9532e694e17592c9949ed04ee353cdf8bfc600260008473ffffffffffffffffffffffffffffffffffffffff1673ffffffffffffffffffffffffffffffffffffffff16815260200190815260200160002060000154604051610e4491906116f9565b60405180910390a250565b610e57611212565b600073ffffffffffffffffffffffffffffffffffffffff168173ffffffffffffffffffffffffffffffffffffffff1603610ec6576040517f08c379a0000000000000000000000000000000000000000000000000000000008152600401610ebd90611b9e565b60405180910390fd5b610ecf81611290565b50565b600081600154610ee29190611a20565b421015610efe5760015442610ef7919061193e565b9050610f02565b8190505b919050565b6000610f476040518060400160405280601281526020017f676574417661696c61626c65546f6b656e7300000000000000000000000000008152506110dd565b610f866040518060400160405280600e81526020017f5f74696d6550617373656420257300000000000000000000000000000000000081525086611176565b610fc56040518060400160405280601281526020017f5f72656d61696e696e67436f696e73202573000000000000000000000000000081525085611176565b6110046040518060400160405280600a81526020017f5f737570706c792025730000000000000000000000000000000000000000000081525084611176565b600082848761101391906119de565b61101d9190611bed565b9050848461102b919061193e565b81611036919061193e565b915050949350505050565b6000818361104f919061193e565b905092915050565b6110d88363a9059cbb60e01b8484604051602401611076929190611c1e565b604051602081830303815290604052907bffffffffffffffffffffffffffffffffffffffffffffffffffffffff19166020820180517bffffffffffffffffffffffffffffffffffffffffffffffffffffffff8381831617835250505050611354565b505050565b611173816040516024016110f19190611cc6565b6040516020818303038152906040527f41304fac000000000000000000000000000000000000000000000000000000007bffffffffffffffffffffffffffffffffffffffffffffffffffffffff19166020820180517bffffffffffffffffffffffffffffffffffffffffffffffffffffffff838183161783525050505061141b565b50565b61120e828260405160240161118c929190611ce8565b6040516020818303038152906040527fb60e72cc000000000000000000000000000000000000000000000000000000007bffffffffffffffffffffffffffffffffffffffffffffffffffffffff19166020820180517bffffffffffffffffffffffffffffffffffffffffffffffffffffffff838183161783525050505061141b565b5050565b61121a611444565b73ffffffffffffffffffffffffffffffffffffffff1661123861061a565b73ffffffffffffffffffffffffffffffffffffffff161461128e576040517f08c379a000000000000000000000000000000000000000000000000000000000815260040161128590611d64565b60405180910390fd5b565b60008060009054906101000a900473ffffffffffffffffffffffffffffffffffffffff169050816000806101000a81548173ffffffffffffffffffffffffffffffffffffffff021916908373ffffffffffffffffffffffffffffffffffffffff1602179055508173ffffffffffffffffffffffffffffffffffffffff168173ffffffffffffffffffffffffffffffffffffffff167f8be0079c531659141344cd1fd0a4f28419497f9722a3daafe3b4186f6b6457e060405160405180910390a35050565b60006113b6826040518060400160405280602081526020017f5361666545524332303a206c6f772d6c6576656c2063616c6c206661696c65648152508573ffffffffffffffffffffffffffffffffffffffff1661144c9092919063ffffffff16565b905060008151111561141657808060200190518101906113d69190611dbc565b611415576040517f08c379a000000000000000000000000000000000000000000000000000000000815260040161140c90611e5b565b60405180910390fd5b5b505050565b60008151905060006a636f6e736f6c652e6c6f679050602083016000808483855afa5050505050565b600033905090565b606061145b8484600085611464565b90509392505050565b6060824710156114a9576040517f08c379a00000000000000000000000000000000000000000000000000000000081526004016114a090611eed565b60405180910390fd5b6000808673ffffffffffffffffffffffffffffffffffffffff1685876040516114d29190611f54565b60006040518083038185875af1925050503d806000811461150f576040519150601f19603f3d011682016040523d82523d6000602084013e611514565b606091505b509150915061152587838387611531565b92505050949350505050565b6060831561159357600083510361158b5761154b856115a6565b61158a576040517f08c379a000000000000000000000000000000000000000000000000000000000815260040161158190611fb7565b60405180910390fd5b5b82905061159e565b61159d83836115c9565b5b949350505050565b6000808273ffffffffffffffffffffffffffffffffffffffff163b119050919050565b6000825111156115dc5781518083602001fd5b806040517f08c379a00000000000000000000000000000000000000000000000000000000081526004016116109190611cc6565b60405180910390fd5b600080fd5b600073ffffffffffffffffffffffffffffffffffffffff82169050919050565b60006116498261161e565b9050919050565b6116598161163e565b811461166457600080fd5b50565b60008135905061167681611650565b92915050565b60006020828403121561169257611691611619565b5b60006116a084828501611667565b91505092915050565b6000819050919050565b6116bc816116a9565b82525050565b60006060820190506116d760008301866116b3565b6116e460208301856116b3565b6116f160408301846116b3565b949350505050565b600060208201905061170e60008301846116b3565b92915050565b61171d8161163e565b82525050565b60006020820190506117386000830184611714565b92915050565b611747816116a9565b811461175257600080fd5b50565b6000813590506117648161173e565b92915050565b6000806040838503121561178157611780611619565b5b600061178f85828601611667565b92505060206117a085828601611755565b9150509250929050565b6000806000606084860312156117c3576117c2611619565b5b60006117d186828701611667565b93505060206117e286828701611755565b92505060406117f386828701611755565b9150509250925092565b600082825260208201905092915050565b7f76657374696e67206861736e7420737461727465642079657400000000000000600082015250565b60006118446019836117fd565b915061184f8261180e565b602082019050919050565b6000602082019050818103600083015261187381611837565b9050919050565b7f7573657220686173206e6f20616c6c6f636174696f6e00000000000000000000600082015250565b60006118b06016836117fd565b91506118bb8261187a565b602082019050919050565b600060208201905081810360008301526118df816118a3565b9050919050565b60006040820190506118fb60008301856116b3565b61190860208301846116b3565b9392505050565b7f4e487b7100000000000000000000000000000000000000000000000000000000600052601160045260246000fd5b6000611949826116a9565b9150611954836116a9565b925082820390508181111561196c5761196b61190f565b5b92915050565b7f696e766573746f7220646f65736e74206861766520616c6c6f636174696f6e00600082015250565b60006119a8601f836117fd565b91506119b382611972565b602082019050919050565b600060208201905081810360008301526119d78161199b565b9050919050565b60006119e9826116a9565b91506119f4836116a9565b9250828202611a02816116a9565b91508282048414831517611a1957611a1861190f565b5b5092915050565b6000611a2b826116a9565b9150611a36836116a9565b9250828201905080821115611a4e57611a4d61190f565b5b92915050565b7f696e766573746f7220616c72656164792068617320616c6c6f636174696f6e00600082015250565b6000611a8a601f836117fd565b9150611a9582611a54565b602082019050919050565b60006020820190508181036000830152611ab981611a7d565b9050919050565b7f696e766573746f7220616c72656164792064697361626c656400000000000000600082015250565b6000611af66019836117fd565b9150611b0182611ac0565b602082019050919050565b60006020820190508181036000830152611b2581611ae9565b9050919050565b7f4f776e61626c653a206e6577206f776e657220697320746865207a65726f206160008201527f6464726573730000000000000000000000000000000000000000000000000000602082015250565b6000611b886026836117fd565b9150611b9382611b2c565b604082019050919050565b60006020820190508181036000830152611bb781611b7b565b9050919050565b7f4e487b7100000000000000000000000000000000000000000000000000000000600052601260045260246000fd5b6000611bf8826116a9565b9150611c03836116a9565b925082611c1357611c12611bbe565b5b828204905092915050565b6000604082019050611c336000830185611714565b611c4060208301846116b3565b9392505050565b600081519050919050565b60005b83811015611c70578082015181840152602081019050611c55565b60008484015250505050565b6000601f19601f8301169050919050565b6000611c9882611c47565b611ca281856117fd565b9350611cb2818560208601611c52565b611cbb81611c7c565b840191505092915050565b60006020820190508181036000830152611ce08184611c8d565b905092915050565b60006040820190508181036000830152611d028185611c8d565b9050611d1160208301846116b3565b9392505050565b7f4f776e61626c653a2063616c6c6572206973206e6f7420746865206f776e6572600082015250565b6000611d4e6020836117fd565b9150611d5982611d18565b602082019050919050565b60006020820190508181036000830152611d7d81611d41565b9050919050565b60008115159050919050565b611d9981611d84565b8114611da457600080fd5b50565b600081519050611db681611d90565b92915050565b600060208284031215611dd257611dd1611619565b5b6000611de084828501611da7565b91505092915050565b7f5361666545524332303a204552433230206f7065726174696f6e20646964206e60008201527f6f74207375636365656400000000000000000000000000000000000000000000602082015250565b6000611e45602a836117fd565b9150611e5082611de9565b604082019050919050565b60006020820190508181036000830152611e7481611e38565b9050919050565b7f416464726573733a20696e73756666696369656e742062616c616e636520666f60008201527f722063616c6c0000000000000000000000000000000000000000000000000000602082015250565b6000611ed76026836117fd565b9150611ee282611e7b565b604082019050919050565b60006020820190508181036000830152611f0681611eca565b9050919050565b600081519050919050565b600081905092915050565b6000611f2e82611f0d565b611f388185611f18565b9350611f48818560208601611c52565b80840191505092915050565b6000611f608284611f23565b915081905092915050565b7f416464726573733a2063616c6c20746f206e6f6e2d636f6e7472616374000000600082015250565b6000611fa1601d836117fd565b9150611fac82611f6b565b602082019050919050565b60006020820190508181036000830152611fd081611f94565b905091905056fea264697066735822122054b804eafcfc7e8abe9a30815a340d94fdae39f29b7afc6f54abcb1774ac4ee664736f6c63430008110033",
  "linkReferences": {},
  "deployedLinkReferences": {}
}