{
  "_format": "hh-sol-artifact-1",
  "contractName": "TeamVesting",
  "sourceName": "contracts/TeamVesting.sol",
  "abi": [
    {
      "inputs": [
        {
          "internalType": "contract IERC20",
          "name": "_token",
          "type": "address"
        },
        {
          "internalType": "uint256",
          "name": "_startTime",
          "type": "uint256"
        }
      ],
      "stateMutability": "nonpayable",
      "type": "constructor"
    },
    {
      "anonymous": false,
      "inputs": [
        {
          "indexed": true,
          "internalType": "address",
          "name": "investor",
          "type": "address"
        },
        {
          "indexed": false,
          "internalType": "uint256",
          "name": "remainingCoins",
          "type": "uint256"
        }
      ],
      "name": "InvestorModified",
      "type": "event"
    },
    {
      "anonymous": false,
      "inputs": [
        {
          "indexed": true,
          "internalType": "address",
          "name": "previousOwner",
          "type": "address"
        },
        {
          "indexed": true,
          "internalType": "address",
          "name": "newOwner",
          "type": "address"
        }
      ],
      "name": "OwnershipTransferred",
      "type": "event"
    },
    {
      "anonymous": false,
      "inputs": [
        {
          "indexed": true,
          "internalType": "address",
          "name": "receiver",
          "type": "address"
        },
        {
          "indexed": false,
          "internalType": "uint256",
          "name": "withdrawnAmount",
          "type": "uint256"
        },
        {
          "indexed": false,
          "internalType": "uint256",
          "name": "remainingCoins",
          "type": "uint256"
        }
      ],
      "name": "Withdraw",
      "type": "event"
    },
    {
      "inputs": [
        {
          "internalType": "address",
          "name": "_investor",
          "type": "address"
        },
        {
          "internalType": "uint256",
          "name": "_monthlyAllowance",
          "type": "uint256"
        },
        {
          "internalType": "uint256",
          "name": "_daysDuration",
          "type": "uint256"
        }
      ],
      "name": "addInvestor",
      "outputs": [],
      "stateMutability": "nonpayable",
      "type": "function"
    },
    {
      "inputs": [
        {
          "internalType": "address",
          "name": "",
          "type": "address"
        }
      ],
      "name": "balances",
      "outputs": [
        {
          "internalType": "uint256",
          "name": "remainingCoins",
          "type": "uint256"
        },
        {
          "internalType": "uint256",
          "name": "supply",
          "type": "uint256"
        },
        {
          "internalType": "uint256",
          "name": "duration",
          "type": "uint256"
        }
      ],
      "stateMutability": "view",
      "type": "function"
    },
    {
      "inputs": [
        {
          "internalType": "address",
          "name": "_investor",
          "type": "address"
        }
      ],
      "name": "disableInvestor",
      "outputs": [],
      "stateMutability": "nonpayable",
      "type": "function"
    },
    {
      "inputs": [],
      "name": "getAvailableAmount",
      "outputs": [
        {
          "internalType": "uint256",
          "name": "",
          "type": "uint256"
        }
      ],
      "stateMutability": "view",
      "type": "function"
    },
    {
      "inputs": [],
      "name": "getTotalReleased",
      "outputs": [
        {
          "internalType": "uint256",
          "name": "",
          "type": "uint256"
        }
      ],
      "stateMutability": "view",
      "type": "function"
    },
    {
      "inputs": [],
      "name": "owner",
      "outputs": [
        {
          "internalType": "address",
          "name": "",
          "type": "address"
        }
      ],
      "stateMutability": "view",
      "type": "function"
    },
    {
      "inputs": [],
      "name": "renounceOwnership",
      "outputs": [],
      "stateMutability": "nonpayable",
      "type": "function"
    },
    {
      "inputs": [],
      "name": "startTime",
      "outputs": [
        {
          "internalType": "uint256",
          "name": "",
          "type": "uint256"
        }
      ],
      "stateMutability": "view",
      "type": "function"
    },
    {
      "inputs": [
        {
          "internalType": "address",
          "name": "newOwner",
          "type": "address"
        }
      ],
      "name": "transferOwnership",
      "outputs": [],
      "stateMutability": "nonpayable",
      "type": "function"
    },
    {
      "inputs": [],
      "name": "withdraw",
      "outputs": [],
      "stateMutability": "nonpayable",
      "type": "function"
    }
  ],
  "bytecode": "0x60a06040523480156200001157600080fd5b5060405162001f9138038062001f918339818101604052810190620000379190620002d6565b620000576200004b6200015160201b60201c565b6200015960201b60201c565b600073ffffffffffffffffffffffffffffffffffffffff168273ffffffffffffffffffffffffffffffffffffffff1603620000c9576040517f08c379a0000000000000000000000000000000000000000000000000000000008152600401620000c0906200037e565b60405180910390fd5b4281116200010e576040517f08c379a00000000000000000000000000000000000000000000000000000000081526004016200010590620003f0565b60405180910390fd5b8173ffffffffffffffffffffffffffffffffffffffff1660808173ffffffffffffffffffffffffffffffffffffffff168152505080600181905550505062000412565b600033905090565b60008060009054906101000a900473ffffffffffffffffffffffffffffffffffffffff169050816000806101000a81548173ffffffffffffffffffffffffffffffffffffffff021916908373ffffffffffffffffffffffffffffffffffffffff1602179055508173ffffffffffffffffffffffffffffffffffffffff168173ffffffffffffffffffffffffffffffffffffffff167f8be0079c531659141344cd1fd0a4f28419497f9722a3daafe3b4186f6b6457e060405160405180910390a35050565b600080fd5b600073ffffffffffffffffffffffffffffffffffffffff82169050919050565b60006200024f8262000222565b9050919050565b6000620002638262000242565b9050919050565b620002758162000256565b81146200028157600080fd5b50565b60008151905062000295816200026a565b92915050565b6000819050919050565b620002b0816200029b565b8114620002bc57600080fd5b50565b600081519050620002d081620002a5565b92915050565b60008060408385031215620002f057620002ef6200021d565b5b6000620003008582860162000284565b92505060206200031385828601620002bf565b9150509250929050565b600082825260208201905092915050565b7f696e76616c69642063757272656e637920616464726573730000000000000000600082015250565b6000620003666018836200031d565b915062000373826200032e565b602082019050919050565b60006020820190508181036000830152620003998162000357565b9050919050565b7f76657374696e672073686f756c6420737461727420696e206675747572650000600082015250565b6000620003d8601e836200031d565b9150620003e582620003a0565b602082019050919050565b600060208201905081810360008301526200040b81620003c9565b9050919050565b608051611b636200042e60003960006103010152611b636000f3fe608060405234801561001057600080fd5b506004361061009e5760003560e01c80637bb476f5116100665780637bb476f5146101255780638da5cb5b14610143578063ced84a7114610161578063f142ca5e1461017d578063f2fde38b146101995761009e565b806327e235e3146100a35780633ccfd60b146100d55780634b14c0ef146100df578063715018a6146100fd57806378e9792514610107575b600080fd5b6100bd60048036038101906100b8919061127e565b6101b5565b6040516100cc939291906112c4565b60405180910390f35b6100dd6101df565b005b6100e761039e565b6040516100f491906112fb565b60405180910390f35b6101056104b8565b005b61010f6104cc565b60405161011c91906112fb565b60405180910390f35b61012d6104d2565b60405161013a91906112fb565b60405180910390f35b61014b6105ca565b6040516101589190611325565b60405180910390f35b61017b6004803603810190610176919061136c565b6105f3565b005b6101976004803603810190610192919061127e565b610859565b005b6101b360048036038101906101ae919061127e565b610a51565b005b60026020528060005260406000206000915090508060000154908060010154908060020154905083565b6000600260003373ffffffffffffffffffffffffffffffffffffffff1673ffffffffffffffffffffffffffffffffffffffff1681526020019081526020016000209050600154421015610267576040517f08c379a000000000000000000000000000000000000000000000000000000000815260040161025e9061141c565b60405180910390fd5b60008160000154116102ae576040517f08c379a00000000000000000000000000000000000000000000000000000000081526004016102a590611488565b60405180910390fd5b60006102bd8260020154610ad4565b905060006102d982846000015485600101548660020154610b09565b90506102f2818460000154610c4390919063ffffffff16565b836000018190555061034533827f000000000000000000000000000000000000000000000000000000000000000073ffffffffffffffffffffffffffffffffffffffff16610c599092919063ffffffff16565b3373ffffffffffffffffffffffffffffffffffffffff167ff279e6a1f5e320cca91135676d9cb6e44ca8a08c0b88342bcdb1144f6511b5688285600001546040516103919291906114a8565b60405180910390a2505050565b60006103de6040518060400160405280601081526020017f676574546f74616c52656c656173656400000000000000000000000000000000815250610cdf565b6000600260003373ffffffffffffffffffffffffffffffffffffffff1673ffffffffffffffffffffffffffffffffffffffff16815260200190815260200160002060000154600260003373ffffffffffffffffffffffffffffffffffffffff1673ffffffffffffffffffffffffffffffffffffffff168152602001908152602001600020600101546104709190611500565b90506104b16040518060400160405280601081526020017f746f74616c52656c65617365642025730000000000000000000000000000000081525082610d78565b8091505090565b6104c0610e14565b6104ca6000610e92565b565b60015481565b60006105126040518060400160405280601281526020017f676574417661696c61626c65416d6f756e740000000000000000000000000000815250610cdf565b6000600260003373ffffffffffffffffffffffffffffffffffffffff1673ffffffffffffffffffffffffffffffffffffffff168152602001908152602001600020905060006105648260020154610ad4565b90506105a56040518060400160405280600d81526020017f74696d655061737365642025730000000000000000000000000000000000000081525082610d78565b60006105bf82846000015485600101548660020154610b09565b905080935050505090565b60008060009054906101000a900473ffffffffffffffffffffffffffffffffffffffff16905090565b6105fb610e14565b6000600260008573ffffffffffffffffffffffffffffffffffffffff1673ffffffffffffffffffffffffffffffffffffffff1681526020019081526020016000206000015414610680576040517f08c379a000000000000000000000000000000000000000000000000000000000815260040161067790611580565b60405180910390fd5b670de0b6b3a764000060188361069691906115a0565b6106a091906115a0565b600260008573ffffffffffffffffffffffffffffffffffffffff1673ffffffffffffffffffffffffffffffffffffffff16815260200190815260200160002060000181905550600260008473ffffffffffffffffffffffffffffffffffffffff1673ffffffffffffffffffffffffffffffffffffffff16815260200190815260200160002060000154600260008573ffffffffffffffffffffffffffffffffffffffff1673ffffffffffffffffffffffffffffffffffffffff16815260200190815260200160002060010181905550620151808161077e91906115a0565b600260008573ffffffffffffffffffffffffffffffffffffffff1673ffffffffffffffffffffffffffffffffffffffff168152602001908152602001600020600201819055508273ffffffffffffffffffffffffffffffffffffffff167f0e8cf5022e5945bf3364b2718570d9532e694e17592c9949ed04ee353cdf8bfc600260008673ffffffffffffffffffffffffffffffffffffffff1673ffffffffffffffffffffffffffffffffffffffff1681526020019081526020016000206000015460405161084c91906112fb565b60405180910390a2505050565b610861610e14565b6000600260008373ffffffffffffffffffffffffffffffffffffffff1673ffffffffffffffffffffffffffffffffffffffff16815260200190815260200160002060000154116108e6576040517f08c379a00000000000000000000000000000000000000000000000000000000081526004016108dd9061162e565b60405180910390fd5b6000600260008373ffffffffffffffffffffffffffffffffffffffff1673ffffffffffffffffffffffffffffffffffffffff168152602001908152602001600020600001819055506000600260008373ffffffffffffffffffffffffffffffffffffffff1673ffffffffffffffffffffffffffffffffffffffff168152602001908152602001600020600101819055506000600260008373ffffffffffffffffffffffffffffffffffffffff1673ffffffffffffffffffffffffffffffffffffffff168152602001908152602001600020600201819055508073ffffffffffffffffffffffffffffffffffffffff167f0e8cf5022e5945bf3364b2718570d9532e694e17592c9949ed04ee353cdf8bfc600260008473ffffffffffffffffffffffffffffffffffffffff1673ffffffffffffffffffffffffffffffffffffffff16815260200190815260200160002060000154604051610a4691906112fb565b60405180910390a250565b610a59610e14565b600073ffffffffffffffffffffffffffffffffffffffff168173ffffffffffffffffffffffffffffffffffffffff1603610ac8576040517f08c379a0000000000000000000000000000000000000000000000000000000008152600401610abf906116c0565b60405180910390fd5b610ad181610e92565b50565b600081600154610ae491906116e0565b421015610b005760015442610af99190611500565b9050610b04565b8190505b919050565b6000610b496040518060400160405280601281526020017f676574417661696c61626c65546f6b656e730000000000000000000000000000815250610cdf565b610b886040518060400160405280600e81526020017f5f74696d6550617373656420257300000000000000000000000000000000000081525086610d78565b610bc76040518060400160405280601281526020017f5f72656d61696e696e67436f696e73202573000000000000000000000000000081525085610d78565b610c066040518060400160405280600a81526020017f5f737570706c792025730000000000000000000000000000000000000000000081525084610d78565b6000828487610c1591906115a0565b610c1f9190611743565b90508484610c2d9190611500565b81610c389190611500565b915050949350505050565b60008183610c519190611500565b905092915050565b610cda8363a9059cbb60e01b8484604051602401610c78929190611774565b604051602081830303815290604052907bffffffffffffffffffffffffffffffffffffffffffffffffffffffff19166020820180517bffffffffffffffffffffffffffffffffffffffffffffffffffffffff8381831617835250505050610f56565b505050565b610d7581604051602401610cf3919061181c565b6040516020818303038152906040527f41304fac000000000000000000000000000000000000000000000000000000007bffffffffffffffffffffffffffffffffffffffffffffffffffffffff19166020820180517bffffffffffffffffffffffffffffffffffffffffffffffffffffffff838183161783525050505061101d565b50565b610e108282604051602401610d8e92919061183e565b6040516020818303038152906040527fb60e72cc000000000000000000000000000000000000000000000000000000007bffffffffffffffffffffffffffffffffffffffffffffffffffffffff19166020820180517bffffffffffffffffffffffffffffffffffffffffffffffffffffffff838183161783525050505061101d565b5050565b610e1c611046565b73ffffffffffffffffffffffffffffffffffffffff16610e3a6105ca565b73ffffffffffffffffffffffffffffffffffffffff1614610e90576040517f08c379a0000000000000000000000000000000000000000000000000000000008152600401610e87906118ba565b60405180910390fd5b565b60008060009054906101000a900473ffffffffffffffffffffffffffffffffffffffff169050816000806101000a81548173ffffffffffffffffffffffffffffffffffffffff021916908373ffffffffffffffffffffffffffffffffffffffff1602179055508173ffffffffffffffffffffffffffffffffffffffff168173ffffffffffffffffffffffffffffffffffffffff167f8be0079c531659141344cd1fd0a4f28419497f9722a3daafe3b4186f6b6457e060405160405180910390a35050565b6000610fb8826040518060400160405280602081526020017f5361666545524332303a206c6f772d6c6576656c2063616c6c206661696c65648152508573ffffffffffffffffffffffffffffffffffffffff1661104e9092919063ffffffff16565b90506000815111156110185780806020019051810190610fd89190611912565b611017576040517f08c379a000000000000000000000000000000000000000000000000000000000815260040161100e906119b1565b60405180910390fd5b5b505050565b60008151905060006a636f6e736f6c652e6c6f679050602083016000808483855afa5050505050565b600033905090565b606061105d8484600085611066565b90509392505050565b6060824710156110ab576040517f08c379a00000000000000000000000000000000000000000000000000000000081526004016110a290611a43565b60405180910390fd5b6000808673ffffffffffffffffffffffffffffffffffffffff1685876040516110d49190611aaa565b60006040518083038185875af1925050503d8060008114611111576040519150601f19603f3d011682016040523d82523d6000602084013e611116565b606091505b509150915061112787838387611133565b92505050949350505050565b6060831561119557600083510361118d5761114d856111a8565b61118c576040517f08c379a000000000000000000000000000000000000000000000000000000000815260040161118390611b0d565b60405180910390fd5b5b8290506111a0565b61119f83836111cb565b5b949350505050565b6000808273ffffffffffffffffffffffffffffffffffffffff163b119050919050565b6000825111156111de5781518083602001fd5b806040517f08c379a0000000000000000000000000000000000000000000000000000000008152600401611212919061181c565b60405180910390fd5b600080fd5b600073ffffffffffffffffffffffffffffffffffffffff82169050919050565b600061124b82611220565b9050919050565b61125b81611240565b811461126657600080fd5b50565b60008135905061127881611252565b92915050565b6000602082840312156112945761129361121b565b5b60006112a284828501611269565b91505092915050565b6000819050919050565b6112be816112ab565b82525050565b60006060820190506112d960008301866112b5565b6112e660208301856112b5565b6112f360408301846112b5565b949350505050565b600060208201905061131060008301846112b5565b92915050565b61131f81611240565b82525050565b600060208201905061133a6000830184611316565b92915050565b611349816112ab565b811461135457600080fd5b50565b60008135905061136681611340565b92915050565b6000806000606084860312156113855761138461121b565b5b600061139386828701611269565b93505060206113a486828701611357565b92505060406113b586828701611357565b9150509250925092565b600082825260208201905092915050565b7f76657374696e67206861736e7420737461727465642079657400000000000000600082015250565b60006114066019836113bf565b9150611411826113d0565b602082019050919050565b60006020820190508181036000830152611435816113f9565b9050919050565b7f7573657220686173206e6f20616c6c6f636174696f6e00000000000000000000600082015250565b60006114726016836113bf565b915061147d8261143c565b602082019050919050565b600060208201905081810360008301526114a181611465565b9050919050565b60006040820190506114bd60008301856112b5565b6114ca60208301846112b5565b9392505050565b7f4e487b7100000000000000000000000000000000000000000000000000000000600052601160045260246000fd5b600061150b826112ab565b9150611516836112ab565b925082820390508181111561152e5761152d6114d1565b5b92915050565b7f696e766573746f7220616c72656164792068617320616c6c6f636174696f6e00600082015250565b600061156a601f836113bf565b915061157582611534565b602082019050919050565b600060208201905081810360008301526115998161155d565b9050919050565b60006115ab826112ab565b91506115b6836112ab565b92508282026115c4816112ab565b915082820484148315176115db576115da6114d1565b5b5092915050565b7f696e766573746f7220616c72656164792064697361626c656400000000000000600082015250565b60006116186019836113bf565b9150611623826115e2565b602082019050919050565b600060208201905081810360008301526116478161160b565b9050919050565b7f4f776e61626c653a206e6577206f776e657220697320746865207a65726f206160008201527f6464726573730000000000000000000000000000000000000000000000000000602082015250565b60006116aa6026836113bf565b91506116b58261164e565b604082019050919050565b600060208201905081810360008301526116d98161169d565b9050919050565b60006116eb826112ab565b91506116f6836112ab565b925082820190508082111561170e5761170d6114d1565b5b92915050565b7f4e487b7100000000000000000000000000000000000000000000000000000000600052601260045260246000fd5b600061174e826112ab565b9150611759836112ab565b92508261176957611768611714565b5b828204905092915050565b60006040820190506117896000830185611316565b61179660208301846112b5565b9392505050565b600081519050919050565b60005b838110156117c65780820151818401526020810190506117ab565b60008484015250505050565b6000601f19601f8301169050919050565b60006117ee8261179d565b6117f881856113bf565b93506118088185602086016117a8565b611811816117d2565b840191505092915050565b6000602082019050818103600083015261183681846117e3565b905092915050565b6000604082019050818103600083015261185881856117e3565b905061186760208301846112b5565b9392505050565b7f4f776e61626c653a2063616c6c6572206973206e6f7420746865206f776e6572600082015250565b60006118a46020836113bf565b91506118af8261186e565b602082019050919050565b600060208201905081810360008301526118d381611897565b9050919050565b60008115159050919050565b6118ef816118da565b81146118fa57600080fd5b50565b60008151905061190c816118e6565b92915050565b6000602082840312156119285761192761121b565b5b6000611936848285016118fd565b91505092915050565b7f5361666545524332303a204552433230206f7065726174696f6e20646964206e60008201527f6f74207375636365656400000000000000000000000000000000000000000000602082015250565b600061199b602a836113bf565b91506119a68261193f565b604082019050919050565b600060208201905081810360008301526119ca8161198e565b9050919050565b7f416464726573733a20696e73756666696369656e742062616c616e636520666f60008201527f722063616c6c0000000000000000000000000000000000000000000000000000602082015250565b6000611a2d6026836113bf565b9150611a38826119d1565b604082019050919050565b60006020820190508181036000830152611a5c81611a20565b9050919050565b600081519050919050565b600081905092915050565b6000611a8482611a63565b611a8e8185611a6e565b9350611a9e8185602086016117a8565b80840191505092915050565b6000611ab68284611a79565b915081905092915050565b7f416464726573733a2063616c6c20746f206e6f6e2d636f6e7472616374000000600082015250565b6000611af7601d836113bf565b9150611b0282611ac1565b602082019050919050565b60006020820190508181036000830152611b2681611aea565b905091905056fea2646970667358221220daa82ef6e06a2916f622e1c8961fac7d60bcc159fc53a5dfa7fcb6ed3f7b4f9e64736f6c63430008110033",
  "linkReferences": {},
  "deployedLinkReferences": {}
}