{"contracts/TeamVesting.sol":{"TeamVesting":{"abi":[{"inputs":[{"internalType":"contract IERC20","name":"_token","type":"address"},{"internalType":"uint256","name":"_startTime","type":"uint256"}],"stateMutability":"nonpayable","type":"constructor"},{"anonymous":false,"inputs":[{"indexed":true,"internalType":"address","name":"investor","type":"address"},{"indexed":false,"internalType":"uint256","name":"remainingCoins","type":"uint256"}],"name":"InvestorModified","type":"event"},{"anonymous":false,"inputs":[{"indexed":true,"internalType":"address","name":"previousOwner","type":"address"},{"indexed":true,"internalType":"address","name":"newOwner","type":"address"}],"name":"OwnershipTransferred","type":"event"},{"anonymous":false,"inputs":[{"indexed":true,"internalType":"address","name":"receiver","type":"address"},{"indexed":false,"internalType":"uint256","name":"withdrawnAmount","type":"uint256"},{"indexed":false,"internalType":"uint256","name":"remainingCoins","type":"uint256"}],"name":"Withdraw","type":"event"},{"inputs":[{"internalType":"address","name":"_investor","type":"address"},{"internalType":"uint256","name":"_monthlyAllowance","type":"uint256"},{"internalType":"uint256","name":"_daysDuration","type":"uint256"}],"name":"addInvestor","outputs":[],"stateMutability":"nonpayable","type":"function"},{"inputs":[{"internalType":"address","name":"","type":"address"}],"name":"balances","outputs":[{"internalType":"uint256","name":"remainingCoins","type":"uint256"},{"internalType":"uint256","name":"supply","type":"uint256"},{"internalType":"uint256","name":"duration","type":"uint256"}],"stateMutability":"view","type":"function"},{"inputs":[{"internalType":"address","name":"_investor","type":"address"}],"name":"disableInvestor","outputs":[],"stateMutability":"nonpayable","type":"function"},{"inputs":[],"name":"getAvailableAmount","outputs":[{"internalType":"uint256","name":"","type":"uint256"}],"stateMutability":"view","type":"function"},{"inputs":[],"name":"getDuration","outputs":[{"internalType":"uint256","name":"","type":"uint256"}],"stateMutability":"view","type":"function"},{"inputs":[],"name":"getTotalReleased","outputs":[{"internalType":"uint256","name":"","type":"uint256"}],"stateMutability":"view","type":"function"},{"inputs":[{"internalType":"address","name":"_investor","type":"address"},{"internalType":"uint256","name":"_monthlyAllowance","type":"uint256"}],"name":"modifyInvestor","outputs":[],"stateMutability":"nonpayable","type":"function"},{"inputs":[],"name":"owner","outputs":[{"internalType":"address","name":"","type":"address"}],"stateMutability":"view","type":"function"},{"inputs":[],"name":"renounceOwnership","outputs":[],"stateMutability":"nonpayable","type":"function"},{"inputs":[],"name":"startTime","outputs":[{"internalType":"uint256","name":"","type":"uint256"}],"stateMutability":"view","type":"function"},{"inputs":[{"internalType":"address","name":"newOwner","type":"address"}],"name":"transferOwnership","outputs":[],"stateMutability":"nonpayable","type":"function"},{"inputs":[],"name":"withdraw","outputs":[],"stateMutability":"nonpayable","type":"function"}],"evm":{"bytecode":{"linkReferences":{},"object":"60a06040523480156200001157600080fd5b506040516200243b3803806200243b8339818101604052810190620000379190620002d6565b620000576200004b6200015160201b60201c565b6200015960201b60201c565b600073ffffffffffffffffffffffffffffffffffffffff168273ffffffffffffffffffffffffffffffffffffffff1603620000c9576040517f08c379a0000000000000000000000000000000000000000000000000000000008152600401620000c0906200037e565b60405180910390fd5b4281116200010e576040517f08c379a00000000000000000000000000000000000000000000000000000000081526004016200010590620003f0565b60405180910390fd5b8173ffffffffffffffffffffffffffffffffffffffff1660808173ffffffffffffffffffffffffffffffffffffffff168152505080600181905550505062000412565b600033905090565b60008060009054906101000a900473ffffffffffffffffffffffffffffffffffffffff169050816000806101000a81548173ffffffffffffffffffffffffffffffffffffffff021916908373ffffffffffffffffffffffffffffffffffffffff1602179055508173ffffffffffffffffffffffffffffffffffffffff168173ffffffffffffffffffffffffffffffffffffffff167f8be0079c531659141344cd1fd0a4f28419497f9722a3daafe3b4186f6b6457e060405160405180910390a35050565b600080fd5b600073ffffffffffffffffffffffffffffffffffffffff82169050919050565b60006200024f8262000222565b9050919050565b6000620002638262000242565b9050919050565b620002758162000256565b81146200028157600080fd5b50565b60008151905062000295816200026a565b92915050565b6000819050919050565b620002b0816200029b565b8114620002bc57600080fd5b50565b600081519050620002d081620002a5565b92915050565b60008060408385031215620002f057620002ef6200021d565b5b6000620003008582860162000284565b92505060206200031385828601620002bf565b9150509250929050565b600082825260208201905092915050565b7f696e76616c69642063757272656e637920616464726573730000000000000000600082015250565b6000620003666018836200031d565b915062000373826200032e565b602082019050919050565b60006020820190508181036000830152620003998162000357565b9050919050565b7f76657374696e672073686f756c6420737461727420696e206675747572650000600082015250565b6000620003d8601e836200031d565b9150620003e582620003a0565b602082019050919050565b600060208201905081810360008301526200040b81620003c9565b9050919050565b60805161200d6200042e6000396000610351015261200d6000f3fe608060405234801561001057600080fd5b50600436106100b45760003560e01c80638da5cb5b116100715780638da5cb5b14610159578063ad2e8c9b14610177578063b34c60da14610195578063ced84a71146101b1578063f142ca5e146101cd578063f2fde38b146101e9576100b4565b806327e235e3146100b95780633ccfd60b146100eb5780634b14c0ef146100f5578063715018a61461011357806378e979251461011d5780637bb476f51461013b575b600080fd5b6100d360048036038101906100ce919061167c565b610205565b6040516100e2939291906116c2565b60405180910390f35b6100f361022f565b005b6100fd6103ee565b60405161010a91906116f9565b60405180910390f35b61011b610508565b005b61012561051c565b60405161013291906116f9565b60405180910390f35b610143610522565b60405161015091906116f9565b60405180910390f35b61016161061a565b60405161016e9190611723565b60405180910390f35b61017f610643565b60405161018c91906116f9565b60405180910390f35b6101af60048036038101906101aa919061176a565b61068d565b005b6101cb60048036038101906101c691906117aa565b6109cf565b005b6101e760048036038101906101e2919061167c565b610c57565b005b61020360048036038101906101fe919061167c565b610e4f565b005b60026020528060005260406000206000915090508060000154908060010154908060020154905083565b6000600260003373ffffffffffffffffffffffffffffffffffffffff1673ffffffffffffffffffffffffffffffffffffffff16815260200190815260200160002090506001544210156102b7576040517f08c379a00000000000000000000000000000000000000000000000000000000081526004016102ae9061185a565b60405180910390fd5b60008160000154116102fe576040517f08c379a00000000000000000000000000000000000000000000000000000000081526004016102f5906118c6565b60405180910390fd5b600061030d8260020154610ed2565b9050600061032982846000015485600101548660020154610f07565b905061034281846000015461104190919063ffffffff16565b836000018190555061039533827f000000000000000000000000000000000000000000000000000000000000000073ffffffffffffffffffffffffffffffffffffffff166110579092919063ffffffff16565b3373ffffffffffffffffffffffffffffffffffffffff167ff279e6a1f5e320cca91135676d9cb6e44ca8a08c0b88342bcdb1144f6511b5688285600001546040516103e19291906118e6565b60405180910390a2505050565b600061042e6040518060400160405280601081526020017f676574546f74616c52656c6561736564000000000000000000000000000000008152506110dd565b6000600260003373ffffffffffffffffffffffffffffffffffffffff1673ffffffffffffffffffffffffffffffffffffffff16815260200190815260200160002060000154600260003373ffffffffffffffffffffffffffffffffffffffff1673ffffffffffffffffffffffffffffffffffffffff168152602001908152602001600020600101546104c0919061193e565b90506105016040518060400160405280601081526020017f746f74616c52656c65617365642025730000000000000000000000000000000081525082611176565b8091505090565b610510611212565b61051a6000611290565b565b60015481565b60006105626040518060400160405280601281526020017f676574417661696c61626c65416d6f756e7400000000000000000000000000008152506110dd565b6000600260003373ffffffffffffffffffffffffffffffffffffffff1673ffffffffffffffffffffffffffffffffffffffff168152602001908152602001600020905060006105b48260020154610ed2565b90506105f56040518060400160405280600d81526020017f74696d655061737365642025730000000000000000000000000000000000000081525082611176565b600061060f82846000015485600101548660020154610f07565b905080935050505090565b60008060009054906101000a900473ffffffffffffffffffffffffffffffffffffffff16905090565b6000600260003373ffffffffffffffffffffffffffffffffffffffff1673ffffffffffffffffffffffffffffffffffffffff16815260200190815260200160002060020154905090565b610695611212565b6000600260008473ffffffffffffffffffffffffffffffffffffffff1673ffffffffffffffffffffffffffffffffffffffff168152602001908152602001600020600001541161071a576040517f08c379a0000000000000000000000000000000000000000000000000000000008152600401610711906119be565b60405180910390fd5b6000610767600260008573ffffffffffffffffffffffffffffffffffffffff1673ffffffffffffffffffffffffffffffffffffffff16815260200190815260200160002060020154610ed2565b9050600061083d82600260008773ffffffffffffffffffffffffffffffffffffffff1673ffffffffffffffffffffffffffffffffffffffff16815260200190815260200160002060000154600260008873ffffffffffffffffffffffffffffffffffffffff1673ffffffffffffffffffffffffffffffffffffffff16815260200190815260200160002060010154600260008973ffffffffffffffffffffffffffffffffffffffff1673ffffffffffffffffffffffffffffffffffffffff16815260200190815260200160002060020154610f07565b9050670de0b6b3a764000060188461085591906119de565b61085f91906119de565b8161086a9190611a20565b600260008673ffffffffffffffffffffffffffffffffffffffff1673ffffffffffffffffffffffffffffffffffffffff16815260200190815260200160002060000181905550600260008573ffffffffffffffffffffffffffffffffffffffff1673ffffffffffffffffffffffffffffffffffffffff16815260200190815260200160002060000154600260008673ffffffffffffffffffffffffffffffffffffffff1673ffffffffffffffffffffffffffffffffffffffff168152602001908152602001600020600101819055508373ffffffffffffffffffffffffffffffffffffffff167f0e8cf5022e5945bf3364b2718570d9532e694e17592c9949ed04ee353cdf8bfc600260008773ffffffffffffffffffffffffffffffffffffffff1673ffffffffffffffffffffffffffffffffffffffff168152602001908152602001600020600001546040516109c191906116f9565b60405180910390a250505050565b6109d7611212565b6000600260008573ffffffffffffffffffffffffffffffffffffffff1673ffffffffffffffffffffffffffffffffffffffff1681526020019081526020016000206000015414610a5c576040517f08c379a0000000000000000000000000000000000000000000000000000000008152600401610a5390611aa0565b60405180910390fd5b670de0b6b3a7640000601883610a7291906119de565b610a7c91906119de565b600260008573ffffffffffffffffffffffffffffffffffffffff1673ffffffffffffffffffffffffffffffffffffffff16815260200190815260200160002060000181905550600260008473ffffffffffffffffffffffffffffffffffffffff1673ffffffffffffffffffffffffffffffffffffffff16815260200190815260200160002060000154600260008573ffffffffffffffffffffffffffffffffffffffff1673ffffffffffffffffffffffffffffffffffffffff168152602001908152602001600020600101819055506103e8603c80601884610b5e91906119de565b610b6891906119de565b610b7291906119de565b610b7c91906119de565b600260008573ffffffffffffffffffffffffffffffffffffffff1673ffffffffffffffffffffffffffffffffffffffff168152602001908152602001600020600201819055508273ffffffffffffffffffffffffffffffffffffffff167f0e8cf5022e5945bf3364b2718570d9532e694e17592c9949ed04ee353cdf8bfc600260008673ffffffffffffffffffffffffffffffffffffffff1673ffffffffffffffffffffffffffffffffffffffff16815260200190815260200160002060000154604051610c4a91906116f9565b60405180910390a2505050565b610c5f611212565b6000600260008373ffffffffffffffffffffffffffffffffffffffff1673ffffffffffffffffffffffffffffffffffffffff1681526020019081526020016000206000015411610ce4576040517f08c379a0000000000000000000000000000000000000000000000000000000008152600401610cdb90611b0c565b60405180910390fd5b6000600260008373ffffffffffffffffffffffffffffffffffffffff1673ffffffffffffffffffffffffffffffffffffffff168152602001908152602001600020600001819055506000600260008373ffffffffffffffffffffffffffffffffffffffff1673ffffffffffffffffffffffffffffffffffffffff168152602001908152602001600020600101819055506000600260008373ffffffffffffffffffffffffffffffffffffffff1673ffffffffffffffffffffffffffffffffffffffff168152602001908152602001600020600201819055508073ffffffffffffffffffffffffffffffffffffffff167f0e8cf5022e5945bf3364b2718570d9532e694e17592c9949ed04ee353cdf8bfc600260008473ffffffffffffffffffffffffffffffffffffffff1673ffffffffffffffffffffffffffffffffffffffff16815260200190815260200160002060000154604051610e4491906116f9565b60405180910390a250565b610e57611212565b600073ffffffffffffffffffffffffffffffffffffffff168173ffffffffffffffffffffffffffffffffffffffff1603610ec6576040517f08c379a0000000000000000000000000000000000000000000000000000000008152600401610ebd90611b9e565b60405180910390fd5b610ecf81611290565b50565b600081600154610ee29190611a20565b421015610efe5760015442610ef7919061193e565b9050610f02565b8190505b919050565b6000610f476040518060400160405280601281526020017f676574417661696c61626c65546f6b656e7300000000000000000000000000008152506110dd565b610f866040518060400160405280600e81526020017f5f74696d6550617373656420257300000000000000000000000000000000000081525086611176565b610fc56040518060400160405280601281526020017f5f72656d61696e696e67436f696e73202573000000000000000000000000000081525085611176565b6110046040518060400160405280600a81526020017f5f737570706c792025730000000000000000000000000000000000000000000081525084611176565b600082848761101391906119de565b61101d9190611bed565b9050848461102b919061193e565b81611036919061193e565b915050949350505050565b6000818361104f919061193e565b905092915050565b6110d88363a9059cbb60e01b8484604051602401611076929190611c1e565b604051602081830303815290604052907bffffffffffffffffffffffffffffffffffffffffffffffffffffffff19166020820180517bffffffffffffffffffffffffffffffffffffffffffffffffffffffff8381831617835250505050611354565b505050565b611173816040516024016110f19190611cc6565b6040516020818303038152906040527f41304fac000000000000000000000000000000000000000000000000000000007bffffffffffffffffffffffffffffffffffffffffffffffffffffffff19166020820180517bffffffffffffffffffffffffffffffffffffffffffffffffffffffff838183161783525050505061141b565b50565b61120e828260405160240161118c929190611ce8565b6040516020818303038152906040527fb60e72cc000000000000000000000000000000000000000000000000000000007bffffffffffffffffffffffffffffffffffffffffffffffffffffffff19166020820180517bffffffffffffffffffffffffffffffffffffffffffffffffffffffff838183161783525050505061141b565b5050565b61121a611444565b73ffffffffffffffffffffffffffffffffffffffff1661123861061a565b73ffffffffffffffffffffffffffffffffffffffff161461128e576040517f08c379a000000000000000000000000000000000000000000000000000000000815260040161128590611d64565b60405180910390fd5b565b60008060009054906101000a900473ffffffffffffffffffffffffffffffffffffffff169050816000806101000a81548173ffffffffffffffffffffffffffffffffffffffff021916908373ffffffffffffffffffffffffffffffffffffffff1602179055508173ffffffffffffffffffffffffffffffffffffffff168173ffffffffffffffffffffffffffffffffffffffff167f8be0079c531659141344cd1fd0a4f28419497f9722a3daafe3b4186f6b6457e060405160405180910390a35050565b60006113b6826040518060400160405280602081526020017f5361666545524332303a206c6f772d6c6576656c2063616c6c206661696c65648152508573ffffffffffffffffffffffffffffffffffffffff1661144c9092919063ffffffff16565b905060008151111561141657808060200190518101906113d69190611dbc565b611415576040517f08c379a000000000000000000000000000000000000000000000000000000000815260040161140c90611e5b565b60405180910390fd5b5b505050565b60008151905060006a636f6e736f6c652e6c6f679050602083016000808483855afa5050505050565b600033905090565b606061145b8484600085611464565b90509392505050565b6060824710156114a9576040517f08c379a00000000000000000000000000000000000000000000000000000000081526004016114a090611eed565b60405180910390fd5b6000808673ffffffffffffffffffffffffffffffffffffffff1685876040516114d29190611f54565b60006040518083038185875af1925050503d806000811461150f576040519150601f19603f3d011682016040523d82523d6000602084013e611514565b606091505b509150915061152587838387611531565b92505050949350505050565b6060831561159357600083510361158b5761154b856115a6565b61158a576040517f08c379a000000000000000000000000000000000000000000000000000000000815260040161158190611fb7565b60405180910390fd5b5b82905061159e565b61159d83836115c9565b5b949350505050565b6000808273ffffffffffffffffffffffffffffffffffffffff163b119050919050565b6000825111156115dc5781518083602001fd5b806040517f08c379a00000000000000000000000000000000000000000000000000000000081526004016116109190611cc6565b60405180910390fd5b600080fd5b600073ffffffffffffffffffffffffffffffffffffffff82169050919050565b60006116498261161e565b9050919050565b6116598161163e565b811461166457600080fd5b50565b60008135905061167681611650565b92915050565b60006020828403121561169257611691611619565b5b60006116a084828501611667565b91505092915050565b6000819050919050565b6116bc816116a9565b82525050565b60006060820190506116d760008301866116b3565b6116e460208301856116b3565b6116f160408301846116b3565b949350505050565b600060208201905061170e60008301846116b3565b92915050565b61171d8161163e565b82525050565b60006020820190506117386000830184611714565b92915050565b611747816116a9565b811461175257600080fd5b50565b6000813590506117648161173e565b92915050565b6000806040838503121561178157611780611619565b5b600061178f85828601611667565b92505060206117a085828601611755565b9150509250929050565b6000806000606084860312156117c3576117c2611619565b5b60006117d186828701611667565b93505060206117e286828701611755565b92505060406117f386828701611755565b9150509250925092565b600082825260208201905092915050565b7f76657374696e67206861736e7420737461727465642079657400000000000000600082015250565b60006118446019836117fd565b915061184f8261180e565b602082019050919050565b6000602082019050818103600083015261187381611837565b9050919050565b7f7573657220686173206e6f20616c6c6f636174696f6e00000000000000000000600082015250565b60006118b06016836117fd565b91506118bb8261187a565b602082019050919050565b600060208201905081810360008301526118df816118a3565b9050919050565b60006040820190506118fb60008301856116b3565b61190860208301846116b3565b9392505050565b7f4e487b7100000000000000000000000000000000000000000000000000000000600052601160045260246000fd5b6000611949826116a9565b9150611954836116a9565b925082820390508181111561196c5761196b61190f565b5b92915050565b7f696e766573746f7220646f65736e74206861766520616c6c6f636174696f6e00600082015250565b60006119a8601f836117fd565b91506119b382611972565b602082019050919050565b600060208201905081810360008301526119d78161199b565b9050919050565b60006119e9826116a9565b91506119f4836116a9565b9250828202611a02816116a9565b91508282048414831517611a1957611a1861190f565b5b5092915050565b6000611a2b826116a9565b9150611a36836116a9565b9250828201905080821115611a4e57611a4d61190f565b5b92915050565b7f696e766573746f7220616c72656164792068617320616c6c6f636174696f6e00600082015250565b6000611a8a601f836117fd565b9150611a9582611a54565b602082019050919050565b60006020820190508181036000830152611ab981611a7d565b9050919050565b7f696e766573746f7220616c72656164792064697361626c656400000000000000600082015250565b6000611af66019836117fd565b9150611b0182611ac0565b602082019050919050565b60006020820190508181036000830152611b2581611ae9565b9050919050565b7f4f776e61626c653a206e6577206f776e657220697320746865207a65726f206160008201527f6464726573730000000000000000000000000000000000000000000000000000602082015250565b6000611b886026836117fd565b9150611b9382611b2c565b604082019050919050565b60006020820190508181036000830152611bb781611b7b565b9050919050565b7f4e487b7100000000000000000000000000000000000000000000000000000000600052601260045260246000fd5b6000611bf8826116a9565b9150611c03836116a9565b925082611c1357611c12611bbe565b5b828204905092915050565b6000604082019050611c336000830185611714565b611c4060208301846116b3565b9392505050565b600081519050919050565b60005b83811015611c70578082015181840152602081019050611c55565b60008484015250505050565b6000601f19601f8301169050919050565b6000611c9882611c47565b611ca281856117fd565b9350611cb2818560208601611c52565b611cbb81611c7c565b840191505092915050565b60006020820190508181036000830152611ce08184611c8d565b905092915050565b60006040820190508181036000830152611d028185611c8d565b9050611d1160208301846116b3565b9392505050565b7f4f776e61626c653a2063616c6c6572206973206e6f7420746865206f776e6572600082015250565b6000611d4e6020836117fd565b9150611d5982611d18565b602082019050919050565b60006020820190508181036000830152611d7d81611d41565b9050919050565b60008115159050919050565b611d9981611d84565b8114611da457600080fd5b50565b600081519050611db681611d90565b92915050565b600060208284031215611dd257611dd1611619565b5b6000611de084828501611da7565b91505092915050565b7f5361666545524332303a204552433230206f7065726174696f6e20646964206e60008201527f6f74207375636365656400000000000000000000000000000000000000000000602082015250565b6000611e45602a836117fd565b9150611e5082611de9565b604082019050919050565b60006020820190508181036000830152611e7481611e38565b9050919050565b7f416464726573733a20696e73756666696369656e742062616c616e636520666f60008201527f722063616c6c0000000000000000000000000000000000000000000000000000602082015250565b6000611ed76026836117fd565b9150611ee282611e7b565b604082019050919050565b60006020820190508181036000830152611f0681611eca565b9050919050565b600081519050919050565b600081905092915050565b6000611f2e82611f0d565b611f388185611f18565b9350611f48818560208601611c52565b80840191505092915050565b6000611f608284611f23565b915081905092915050565b7f416464726573733a2063616c6c20746f206e6f6e2d636f6e7472616374000000600082015250565b6000611fa1601d836117fd565b9150611fac82611f6b565b602082019050919050565b60006020820190508181036000830152611fd081611f94565b905091905056fea264697066735822122054b804eafcfc7e8abe9a30815a340d94fdae39f29b7afc6f54abcb1774ac4ee664736f6c63430008110033","opcodes":"PUSH1 0xA0 PUSH1 0x40 MSTORE CALLVALUE DUP1 ISZERO PUSH3 0x11 JUMPI PUSH1 0x0 DUP1 REVERT JUMPDEST POP PUSH1 0x40 MLOAD PUSH3 0x243B CODESIZE SUB DUP1 PUSH3 0x243B DUP4 CODECOPY DUP2 DUP2 ADD PUSH1 0x40 MSTORE DUP2 ADD SWAP1 PUSH3 0x37 SWAP2 SWAP1 PUSH3 0x2D6 JUMP JUMPDEST PUSH3 0x57 PUSH3 0x4B PUSH3 0x151 PUSH1 0x20 SHL PUSH1 0x20 SHR JUMP JUMPDEST PUSH3 0x159 PUSH1 0x20 SHL PUSH1 0x20 SHR JUMP JUMPDEST PUSH1 0x0 PUSH20 0xFFFFFFFFFFFFFFFFFFFFFFFFFFFFFFFFFFFFFFFF AND DUP3 PUSH20 0xFFFFFFFFFFFFFFFFFFFFFFFFFFFFFFFFFFFFFFFF AND SUB PUSH3 0xC9 JUMPI PUSH1 0x40 MLOAD PUSH32 0x8C379A000000000000000000000000000000000000000000000000000000000 DUP2 MSTORE PUSH1 0x4 ADD PUSH3 0xC0 SWAP1 PUSH3 0x37E JUMP JUMPDEST PUSH1 0x40 MLOAD DUP1 SWAP2 SUB SWAP1 REVERT JUMPDEST TIMESTAMP DUP2 GT PUSH3 0x10E JUMPI PUSH1 0x40 MLOAD PUSH32 0x8C379A000000000000000000000000000000000000000000000000000000000 DUP2 MSTORE PUSH1 0x4 ADD PUSH3 0x105 SWAP1 PUSH3 0x3F0 JUMP JUMPDEST PUSH1 0x40 MLOAD DUP1 SWAP2 SUB SWAP1 REVERT JUMPDEST DUP2 PUSH20 0xFFFFFFFFFFFFFFFFFFFFFFFFFFFFFFFFFFFFFFFF AND PUSH1 0x80 DUP2 PUSH20 0xFFFFFFFFFFFFFFFFFFFFFFFFFFFFFFFFFFFFFFFF AND DUP2 MSTORE POP POP DUP1 PUSH1 0x1 DUP2 SWAP1 SSTORE POP POP POP PUSH3 0x412 JUMP JUMPDEST PUSH1 0x0 CALLER SWAP1 POP SWAP1 JUMP JUMPDEST PUSH1 0x0 DUP1 PUSH1 0x0 SWAP1 SLOAD SWAP1 PUSH2 0x100 EXP SWAP1 DIV PUSH20 0xFFFFFFFFFFFFFFFFFFFFFFFFFFFFFFFFFFFFFFFF AND SWAP1 POP DUP2 PUSH1 0x0 DUP1 PUSH2 0x100 EXP DUP2 SLOAD DUP2 PUSH20 0xFFFFFFFFFFFFFFFFFFFFFFFFFFFFFFFFFFFFFFFF MUL NOT AND SWAP1 DUP4 PUSH20 0xFFFFFFFFFFFFFFFFFFFFFFFFFFFFFFFFFFFFFFFF AND MUL OR SWAP1 SSTORE POP DUP2 PUSH20 0xFFFFFFFFFFFFFFFFFFFFFFFFFFFFFFFFFFFFFFFF AND DUP2 PUSH20 0xFFFFFFFFFFFFFFFFFFFFFFFFFFFFFFFFFFFFFFFF AND PUSH32 0x8BE0079C531659141344CD1FD0A4F28419497F9722A3DAAFE3B4186F6B6457E0 PUSH1 0x40 MLOAD PUSH1 0x40 MLOAD DUP1 SWAP2 SUB SWAP1 LOG3 POP POP JUMP JUMPDEST PUSH1 0x0 DUP1 REVERT JUMPDEST PUSH1 0x0 PUSH20 0xFFFFFFFFFFFFFFFFFFFFFFFFFFFFFFFFFFFFFFFF DUP3 AND SWAP1 POP SWAP2 SWAP1 POP JUMP JUMPDEST PUSH1 0x0 PUSH3 0x24F DUP3 PUSH3 0x222 JUMP JUMPDEST SWAP1 POP SWAP2 SWAP1 POP JUMP JUMPDEST PUSH1 0x0 PUSH3 0x263 DUP3 PUSH3 0x242 JUMP JUMPDEST SWAP1 POP SWAP2 SWAP1 POP JUMP JUMPDEST PUSH3 0x275 DUP2 PUSH3 0x256 JUMP JUMPDEST DUP2 EQ PUSH3 0x281 JUMPI PUSH1 0x0 DUP1 REVERT JUMPDEST POP JUMP JUMPDEST PUSH1 0x0 DUP2 MLOAD SWAP1 POP PUSH3 0x295 DUP2 PUSH3 0x26A JUMP JUMPDEST SWAP3 SWAP2 POP POP JUMP JUMPDEST PUSH1 0x0 DUP2 SWAP1 POP SWAP2 SWAP1 POP JUMP JUMPDEST PUSH3 0x2B0 DUP2 PUSH3 0x29B JUMP JUMPDEST DUP2 EQ PUSH3 0x2BC JUMPI PUSH1 0x0 DUP1 REVERT JUMPDEST POP JUMP JUMPDEST PUSH1 0x0 DUP2 MLOAD SWAP1 POP PUSH3 0x2D0 DUP2 PUSH3 0x2A5 JUMP JUMPDEST SWAP3 SWAP2 POP POP JUMP JUMPDEST PUSH1 0x0 DUP1 PUSH1 0x40 DUP4 DUP6 SUB SLT ISZERO PUSH3 0x2F0 JUMPI PUSH3 0x2EF PUSH3 0x21D JUMP JUMPDEST JUMPDEST PUSH1 0x0 PUSH3 0x300 DUP6 DUP3 DUP7 ADD PUSH3 0x284 JUMP JUMPDEST SWAP3 POP POP PUSH1 0x20 PUSH3 0x313 DUP6 DUP3 DUP7 ADD PUSH3 0x2BF JUMP JUMPDEST SWAP2 POP POP SWAP3 POP SWAP3 SWAP1 POP JUMP JUMPDEST PUSH1 0x0 DUP3 DUP3 MSTORE PUSH1 0x20 DUP3 ADD SWAP1 POP SWAP3 SWAP2 POP POP JUMP JUMPDEST PUSH32 0x696E76616C69642063757272656E637920616464726573730000000000000000 PUSH1 0x0 DUP3 ADD MSTORE POP JUMP JUMPDEST PUSH1 0x0 PUSH3 0x366 PUSH1 0x18 DUP4 PUSH3 0x31D JUMP JUMPDEST SWAP2 POP PUSH3 0x373 DUP3 PUSH3 0x32E JUMP JUMPDEST PUSH1 0x20 DUP3 ADD SWAP1 POP SWAP2 SWAP1 POP JUMP JUMPDEST PUSH1 0x0 PUSH1 0x20 DUP3 ADD SWAP1 POP DUP2 DUP2 SUB PUSH1 0x0 DUP4 ADD MSTORE PUSH3 0x399 DUP2 PUSH3 0x357 JUMP JUMPDEST SWAP1 POP SWAP2 SWAP1 POP JUMP JUMPDEST PUSH32 0x76657374696E672073686F756C6420737461727420696E206675747572650000 PUSH1 0x0 DUP3 ADD MSTORE POP JUMP JUMPDEST PUSH1 0x0 PUSH3 0x3D8 PUSH1 0x1E DUP4 PUSH3 0x31D JUMP JUMPDEST SWAP2 POP PUSH3 0x3E5 DUP3 PUSH3 0x3A0 JUMP JUMPDEST PUSH1 0x20 DUP3 ADD SWAP1 POP SWAP2 SWAP1 POP JUMP JUMPDEST PUSH1 0x0 PUSH1 0x20 DUP3 ADD SWAP1 POP DUP2 DUP2 SUB PUSH1 0x0 DUP4 ADD MSTORE PUSH3 0x40B DUP2 PUSH3 0x3C9 JUMP JUMPDEST SWAP1 POP SWAP2 SWAP1 POP JUMP JUMPDEST PUSH1 0x80 MLOAD PUSH2 0x200D PUSH3 0x42E PUSH1 0x0 CODECOPY PUSH1 0x0 PUSH2 0x351 ADD MSTORE PUSH2 0x200D PUSH1 0x0 RETURN INVALID PUSH1 0x80 PUSH1 0x40 MSTORE CALLVALUE DUP1 ISZERO PUSH2 0x10 JUMPI PUSH1 0x0 DUP1 REVERT JUMPDEST POP PUSH1 0x4 CALLDATASIZE LT PUSH2 0xB4 JUMPI PUSH1 0x0 CALLDATALOAD PUSH1 0xE0 SHR DUP1 PUSH4 0x8DA5CB5B GT PUSH2 0x71 JUMPI DUP1 PUSH4 0x8DA5CB5B EQ PUSH2 0x159 JUMPI DUP1 PUSH4 0xAD2E8C9B EQ PUSH2 0x177 JUMPI DUP1 PUSH4 0xB34C60DA EQ PUSH2 0x195 JUMPI DUP1 PUSH4 0xCED84A71 EQ PUSH2 0x1B1 JUMPI DUP1 PUSH4 0xF142CA5E EQ PUSH2 0x1CD JUMPI DUP1 PUSH4 0xF2FDE38B EQ PUSH2 0x1E9 JUMPI PUSH2 0xB4 JUMP JUMPDEST DUP1 PUSH4 0x27E235E3 EQ PUSH2 0xB9 JUMPI DUP1 PUSH4 0x3CCFD60B EQ PUSH2 0xEB JUMPI DUP1 PUSH4 0x4B14C0EF EQ PUSH2 0xF5 JUMPI DUP1 PUSH4 0x715018A6 EQ PUSH2 0x113 JUMPI DUP1 PUSH4 0x78E97925 EQ PUSH2 0x11D JUMPI DUP1 PUSH4 0x7BB476F5 EQ PUSH2 0x13B JUMPI JUMPDEST PUSH1 0x0 DUP1 REVERT JUMPDEST PUSH2 0xD3 PUSH1 0x4 DUP1 CALLDATASIZE SUB DUP2 ADD SWAP1 PUSH2 0xCE SWAP2 SWAP1 PUSH2 0x167C JUMP JUMPDEST PUSH2 0x205 JUMP JUMPDEST PUSH1 0x40 MLOAD PUSH2 0xE2 SWAP4 SWAP3 SWAP2 SWAP1 PUSH2 0x16C2 JUMP JUMPDEST PUSH1 0x40 MLOAD DUP1 SWAP2 SUB SWAP1 RETURN JUMPDEST PUSH2 0xF3 PUSH2 0x22F JUMP JUMPDEST STOP JUMPDEST PUSH2 0xFD PUSH2 0x3EE JUMP JUMPDEST PUSH1 0x40 MLOAD PUSH2 0x10A SWAP2 SWAP1 PUSH2 0x16F9 JUMP JUMPDEST PUSH1 0x40 MLOAD DUP1 SWAP2 SUB SWAP1 RETURN JUMPDEST PUSH2 0x11B PUSH2 0x508 JUMP JUMPDEST STOP JUMPDEST PUSH2 0x125 PUSH2 0x51C JUMP JUMPDEST PUSH1 0x40 MLOAD PUSH2 0x132 SWAP2 SWAP1 PUSH2 0x16F9 JUMP JUMPDEST PUSH1 0x40 MLOAD DUP1 SWAP2 SUB SWAP1 RETURN JUMPDEST PUSH2 0x143 PUSH2 0x522 JUMP JUMPDEST PUSH1 0x40 MLOAD PUSH2 0x150 SWAP2 SWAP1 PUSH2 0x16F9 JUMP JUMPDEST PUSH1 0x40 MLOAD DUP1 SWAP2 SUB SWAP1 RETURN JUMPDEST PUSH2 0x161 PUSH2 0x61A JUMP JUMPDEST PUSH1 0x40 MLOAD PUSH2 0x16E SWAP2 SWAP1 PUSH2 0x1723 JUMP JUMPDEST PUSH1 0x40 MLOAD DUP1 SWAP2 SUB SWAP1 RETURN JUMPDEST PUSH2 0x17F PUSH2 0x643 JUMP JUMPDEST PUSH1 0x40 MLOAD PUSH2 0x18C SWAP2 SWAP1 PUSH2 0x16F9 JUMP JUMPDEST PUSH1 0x40 MLOAD DUP1 SWAP2 SUB SWAP1 RETURN JUMPDEST PUSH2 0x1AF PUSH1 0x4 DUP1 CALLDATASIZE SUB DUP2 ADD SWAP1 PUSH2 0x1AA SWAP2 SWAP1 PUSH2 0x176A JUMP JUMPDEST PUSH2 0x68D JUMP JUMPDEST STOP JUMPDEST PUSH2 0x1CB PUSH1 0x4 DUP1 CALLDATASIZE SUB DUP2 ADD SWAP1 PUSH2 0x1C6 SWAP2 SWAP1 PUSH2 0x17AA JUMP JUMPDEST PUSH2 0x9CF JUMP JUMPDEST STOP JUMPDEST PUSH2 0x1E7 PUSH1 0x4 DUP1 CALLDATASIZE SUB DUP2 ADD SWAP1 PUSH2 0x1E2 SWAP2 SWAP1 PUSH2 0x167C JUMP JUMPDEST PUSH2 0xC57 JUMP JUMPDEST STOP JUMPDEST PUSH2 0x203 PUSH1 0x4 DUP1 CALLDATASIZE SUB DUP2 ADD SWAP1 PUSH2 0x1FE SWAP2 SWAP1 PUSH2 0x167C JUMP JUMPDEST PUSH2 0xE4F JUMP JUMPDEST STOP JUMPDEST PUSH1 0x2 PUSH1 0x20 MSTORE DUP1 PUSH1 0x0 MSTORE PUSH1 0x40 PUSH1 0x0 KECCAK256 PUSH1 0x0 SWAP2 POP SWAP1 POP DUP1 PUSH1 0x0 ADD SLOAD SWAP1 DUP1 PUSH1 0x1 ADD SLOAD SWAP1 DUP1 PUSH1 0x2 ADD SLOAD SWAP1 POP DUP4 JUMP JUMPDEST PUSH1 0x0 PUSH1 0x2 PUSH1 0x0 CALLER PUSH20 0xFFFFFFFFFFFFFFFFFFFFFFFFFFFFFFFFFFFFFFFF AND PUSH20 0xFFFFFFFFFFFFFFFFFFFFFFFFFFFFFFFFFFFFFFFF AND DUP2 MSTORE PUSH1 0x20 ADD SWAP1 DUP2 MSTORE PUSH1 0x20 ADD PUSH1 0x0 KECCAK256 SWAP1 POP PUSH1 0x1 SLOAD TIMESTAMP LT ISZERO PUSH2 0x2B7 JUMPI PUSH1 0x40 MLOAD PUSH32 0x8C379A000000000000000000000000000000000000000000000000000000000 DUP2 MSTORE PUSH1 0x4 ADD PUSH2 0x2AE SWAP1 PUSH2 0x185A JUMP JUMPDEST PUSH1 0x40 MLOAD DUP1 SWAP2 SUB SWAP1 REVERT JUMPDEST PUSH1 0x0 DUP2 PUSH1 0x0 ADD SLOAD GT PUSH2 0x2FE JUMPI PUSH1 0x40 MLOAD PUSH32 0x8C379A000000000000000000000000000000000000000000000000000000000 DUP2 MSTORE PUSH1 0x4 ADD PUSH2 0x2F5 SWAP1 PUSH2 0x18C6 JUMP JUMPDEST PUSH1 0x40 MLOAD DUP1 SWAP2 SUB SWAP1 REVERT JUMPDEST PUSH1 0x0 PUSH2 0x30D DUP3 PUSH1 0x2 ADD SLOAD PUSH2 0xED2 JUMP JUMPDEST SWAP1 POP PUSH1 0x0 PUSH2 0x329 DUP3 DUP5 PUSH1 0x0 ADD SLOAD DUP6 PUSH1 0x1 ADD SLOAD DUP7 PUSH1 0x2 ADD SLOAD PUSH2 0xF07 JUMP JUMPDEST SWAP1 POP PUSH2 0x342 DUP2 DUP5 PUSH1 0x0 ADD SLOAD PUSH2 0x1041 SWAP1 SWAP2 SWAP1 PUSH4 0xFFFFFFFF AND JUMP JUMPDEST DUP4 PUSH1 0x0 ADD DUP2 SWAP1 SSTORE POP PUSH2 0x395 CALLER DUP3 PUSH32 0x0 PUSH20 0xFFFFFFFFFFFFFFFFFFFFFFFFFFFFFFFFFFFFFFFF AND PUSH2 0x1057 SWAP1 SWAP3 SWAP2 SWAP1 PUSH4 0xFFFFFFFF AND JUMP JUMPDEST CALLER PUSH20 0xFFFFFFFFFFFFFFFFFFFFFFFFFFFFFFFFFFFFFFFF AND PUSH32 0xF279E6A1F5E320CCA91135676D9CB6E44CA8A08C0B88342BCDB1144F6511B568 DUP3 DUP6 PUSH1 0x0 ADD SLOAD PUSH1 0x40 MLOAD PUSH2 0x3E1 SWAP3 SWAP2 SWAP1 PUSH2 0x18E6 JUMP JUMPDEST PUSH1 0x40 MLOAD DUP1 SWAP2 SUB SWAP1 LOG2 POP POP POP JUMP JUMPDEST PUSH1 0x0 PUSH2 0x42E PUSH1 0x40 MLOAD DUP1 PUSH1 0x40 ADD PUSH1 0x40 MSTORE DUP1 PUSH1 0x10 DUP2 MSTORE PUSH1 0x20 ADD PUSH32 0x676574546F74616C52656C656173656400000000000000000000000000000000 DUP2 MSTORE POP PUSH2 0x10DD JUMP JUMPDEST PUSH1 0x0 PUSH1 0x2 PUSH1 0x0 CALLER PUSH20 0xFFFFFFFFFFFFFFFFFFFFFFFFFFFFFFFFFFFFFFFF AND PUSH20 0xFFFFFFFFFFFFFFFFFFFFFFFFFFFFFFFFFFFFFFFF AND DUP2 MSTORE PUSH1 0x20 ADD SWAP1 DUP2 MSTORE PUSH1 0x20 ADD PUSH1 0x0 KECCAK256 PUSH1 0x0 ADD SLOAD PUSH1 0x2 PUSH1 0x0 CALLER PUSH20 0xFFFFFFFFFFFFFFFFFFFFFFFFFFFFFFFFFFFFFFFF AND PUSH20 0xFFFFFFFFFFFFFFFFFFFFFFFFFFFFFFFFFFFFFFFF AND DUP2 MSTORE PUSH1 0x20 ADD SWAP1 DUP2 MSTORE PUSH1 0x20 ADD PUSH1 0x0 KECCAK256 PUSH1 0x1 ADD SLOAD PUSH2 0x4C0 SWAP2 SWAP1 PUSH2 0x193E JUMP JUMPDEST SWAP1 POP PUSH2 0x501 PUSH1 0x40 MLOAD DUP1 PUSH1 0x40 ADD PUSH1 0x40 MSTORE DUP1 PUSH1 0x10 DUP2 MSTORE PUSH1 0x20 ADD PUSH32 0x746F74616C52656C656173656420257300000000000000000000000000000000 DUP2 MSTORE POP DUP3 PUSH2 0x1176 JUMP JUMPDEST DUP1 SWAP2 POP POP SWAP1 JUMP JUMPDEST PUSH2 0x510 PUSH2 0x1212 JUMP JUMPDEST PUSH2 0x51A PUSH1 0x0 PUSH2 0x1290 JUMP JUMPDEST JUMP JUMPDEST PUSH1 0x1 SLOAD DUP2 JUMP JUMPDEST PUSH1 0x0 PUSH2 0x562 PUSH1 0x40 MLOAD DUP1 PUSH1 0x40 ADD PUSH1 0x40 MSTORE DUP1 PUSH1 0x12 DUP2 MSTORE PUSH1 0x20 ADD PUSH32 0x676574417661696C61626C65416D6F756E740000000000000000000000000000 DUP2 MSTORE POP PUSH2 0x10DD JUMP JUMPDEST PUSH1 0x0 PUSH1 0x2 PUSH1 0x0 CALLER PUSH20 0xFFFFFFFFFFFFFFFFFFFFFFFFFFFFFFFFFFFFFFFF AND PUSH20 0xFFFFFFFFFFFFFFFFFFFFFFFFFFFFFFFFFFFFFFFF AND DUP2 MSTORE PUSH1 0x20 ADD SWAP1 DUP2 MSTORE PUSH1 0x20 ADD PUSH1 0x0 KECCAK256 SWAP1 POP PUSH1 0x0 PUSH2 0x5B4 DUP3 PUSH1 0x2 ADD SLOAD PUSH2 0xED2 JUMP JUMPDEST SWAP1 POP PUSH2 0x5F5 PUSH1 0x40 MLOAD DUP1 PUSH1 0x40 ADD PUSH1 0x40 MSTORE DUP1 PUSH1 0xD DUP2 MSTORE PUSH1 0x20 ADD PUSH32 0x74696D6550617373656420257300000000000000000000000000000000000000 DUP2 MSTORE POP DUP3 PUSH2 0x1176 JUMP JUMPDEST PUSH1 0x0 PUSH2 0x60F DUP3 DUP5 PUSH1 0x0 ADD SLOAD DUP6 PUSH1 0x1 ADD SLOAD DUP7 PUSH1 0x2 ADD SLOAD PUSH2 0xF07 JUMP JUMPDEST SWAP1 POP DUP1 SWAP4 POP POP POP POP SWAP1 JUMP JUMPDEST PUSH1 0x0 DUP1 PUSH1 0x0 SWAP1 SLOAD SWAP1 PUSH2 0x100 EXP SWAP1 DIV PUSH20 0xFFFFFFFFFFFFFFFFFFFFFFFFFFFFFFFFFFFFFFFF AND SWAP1 POP SWAP1 JUMP JUMPDEST PUSH1 0x0 PUSH1 0x2 PUSH1 0x0 CALLER PUSH20 0xFFFFFFFFFFFFFFFFFFFFFFFFFFFFFFFFFFFFFFFF AND PUSH20 0xFFFFFFFFFFFFFFFFFFFFFFFFFFFFFFFFFFFFFFFF AND DUP2 MSTORE PUSH1 0x20 ADD SWAP1 DUP2 MSTORE PUSH1 0x20 ADD PUSH1 0x0 KECCAK256 PUSH1 0x2 ADD SLOAD SWAP1 POP SWAP1 JUMP JUMPDEST PUSH2 0x695 PUSH2 0x1212 JUMP JUMPDEST PUSH1 0x0 PUSH1 0x2 PUSH1 0x0 DUP5 PUSH20 0xFFFFFFFFFFFFFFFFFFFFFFFFFFFFFFFFFFFFFFFF AND PUSH20 0xFFFFFFFFFFFFFFFFFFFFFFFFFFFFFFFFFFFFFFFF AND DUP2 MSTORE PUSH1 0x20 ADD SWAP1 DUP2 MSTORE PUSH1 0x20 ADD PUSH1 0x0 KECCAK256 PUSH1 0x0 ADD SLOAD GT PUSH2 0x71A JUMPI PUSH1 0x40 MLOAD PUSH32 0x8C379A000000000000000000000000000000000000000000000000000000000 DUP2 MSTORE PUSH1 0x4 ADD PUSH2 0x711 SWAP1 PUSH2 0x19BE JUMP JUMPDEST PUSH1 0x40 MLOAD DUP1 SWAP2 SUB SWAP1 REVERT JUMPDEST PUSH1 0x0 PUSH2 0x767 PUSH1 0x2 PUSH1 0x0 DUP6 PUSH20 0xFFFFFFFFFFFFFFFFFFFFFFFFFFFFFFFFFFFFFFFF AND PUSH20 0xFFFFFFFFFFFFFFFFFFFFFFFFFFFFFFFFFFFFFFFF AND DUP2 MSTORE PUSH1 0x20 ADD SWAP1 DUP2 MSTORE PUSH1 0x20 ADD PUSH1 0x0 KECCAK256 PUSH1 0x2 ADD SLOAD PUSH2 0xED2 JUMP JUMPDEST SWAP1 POP PUSH1 0x0 PUSH2 0x83D DUP3 PUSH1 0x2 PUSH1 0x0 DUP8 PUSH20 0xFFFFFFFFFFFFFFFFFFFFFFFFFFFFFFFFFFFFFFFF AND PUSH20 0xFFFFFFFFFFFFFFFFFFFFFFFFFFFFFFFFFFFFFFFF AND DUP2 MSTORE PUSH1 0x20 ADD SWAP1 DUP2 MSTORE PUSH1 0x20 ADD PUSH1 0x0 KECCAK256 PUSH1 0x0 ADD SLOAD PUSH1 0x2 PUSH1 0x0 DUP9 PUSH20 0xFFFFFFFFFFFFFFFFFFFFFFFFFFFFFFFFFFFFFFFF AND PUSH20 0xFFFFFFFFFFFFFFFFFFFFFFFFFFFFFFFFFFFFFFFF AND DUP2 MSTORE PUSH1 0x20 ADD SWAP1 DUP2 MSTORE PUSH1 0x20 ADD PUSH1 0x0 KECCAK256 PUSH1 0x1 ADD SLOAD PUSH1 0x2 PUSH1 0x0 DUP10 PUSH20 0xFFFFFFFFFFFFFFFFFFFFFFFFFFFFFFFFFFFFFFFF AND PUSH20 0xFFFFFFFFFFFFFFFFFFFFFFFFFFFFFFFFFFFFFFFF AND DUP2 MSTORE PUSH1 0x20 ADD SWAP1 DUP2 MSTORE PUSH1 0x20 ADD PUSH1 0x0 KECCAK256 PUSH1 0x2 ADD SLOAD PUSH2 0xF07 JUMP JUMPDEST SWAP1 POP PUSH8 0xDE0B6B3A7640000 PUSH1 0x18 DUP5 PUSH2 0x855 SWAP2 SWAP1 PUSH2 0x19DE JUMP JUMPDEST PUSH2 0x85F SWAP2 SWAP1 PUSH2 0x19DE JUMP JUMPDEST DUP2 PUSH2 0x86A SWAP2 SWAP1 PUSH2 0x1A20 JUMP JUMPDEST PUSH1 0x2 PUSH1 0x0 DUP7 PUSH20 0xFFFFFFFFFFFFFFFFFFFFFFFFFFFFFFFFFFFFFFFF AND PUSH20 0xFFFFFFFFFFFFFFFFFFFFFFFFFFFFFFFFFFFFFFFF AND DUP2 MSTORE PUSH1 0x20 ADD SWAP1 DUP2 MSTORE PUSH1 0x20 ADD PUSH1 0x0 KECCAK256 PUSH1 0x0 ADD DUP2 SWAP1 SSTORE POP PUSH1 0x2 PUSH1 0x0 DUP6 PUSH20 0xFFFFFFFFFFFFFFFFFFFFFFFFFFFFFFFFFFFFFFFF AND PUSH20 0xFFFFFFFFFFFFFFFFFFFFFFFFFFFFFFFFFFFFFFFF AND DUP2 MSTORE PUSH1 0x20 ADD SWAP1 DUP2 MSTORE PUSH1 0x20 ADD PUSH1 0x0 KECCAK256 PUSH1 0x0 ADD SLOAD PUSH1 0x2 PUSH1 0x0 DUP7 PUSH20 0xFFFFFFFFFFFFFFFFFFFFFFFFFFFFFFFFFFFFFFFF AND PUSH20 0xFFFFFFFFFFFFFFFFFFFFFFFFFFFFFFFFFFFFFFFF AND DUP2 MSTORE PUSH1 0x20 ADD SWAP1 DUP2 MSTORE PUSH1 0x20 ADD PUSH1 0x0 KECCAK256 PUSH1 0x1 ADD DUP2 SWAP1 SSTORE POP DUP4 PUSH20 0xFFFFFFFFFFFFFFFFFFFFFFFFFFFFFFFFFFFFFFFF AND PUSH32 0xE8CF5022E5945BF3364B2718570D9532E694E17592C9949ED04EE353CDF8BFC PUSH1 0x2 PUSH1 0x0 DUP8 PUSH20 0xFFFFFFFFFFFFFFFFFFFFFFFFFFFFFFFFFFFFFFFF AND PUSH20 0xFFFFFFFFFFFFFFFFFFFFFFFFFFFFFFFFFFFFFFFF AND DUP2 MSTORE PUSH1 0x20 ADD SWAP1 DUP2 MSTORE PUSH1 0x20 ADD PUSH1 0x0 KECCAK256 PUSH1 0x0 ADD SLOAD PUSH1 0x40 MLOAD PUSH2 0x9C1 SWAP2 SWAP1 PUSH2 0x16F9 JUMP JUMPDEST PUSH1 0x40 MLOAD DUP1 SWAP2 SUB SWAP1 LOG2 POP POP POP POP JUMP JUMPDEST PUSH2 0x9D7 PUSH2 0x1212 JUMP JUMPDEST PUSH1 0x0 PUSH1 0x2 PUSH1 0x0 DUP6 PUSH20 0xFFFFFFFFFFFFFFFFFFFFFFFFFFFFFFFFFFFFFFFF AND PUSH20 0xFFFFFFFFFFFFFFFFFFFFFFFFFFFFFFFFFFFFFFFF AND DUP2 MSTORE PUSH1 0x20 ADD SWAP1 DUP2 MSTORE PUSH1 0x20 ADD PUSH1 0x0 KECCAK256 PUSH1 0x0 ADD SLOAD EQ PUSH2 0xA5C JUMPI PUSH1 0x40 MLOAD PUSH32 0x8C379A000000000000000000000000000000000000000000000000000000000 DUP2 MSTORE PUSH1 0x4 ADD PUSH2 0xA53 SWAP1 PUSH2 0x1AA0 JUMP JUMPDEST PUSH1 0x40 MLOAD DUP1 SWAP2 SUB SWAP1 REVERT JUMPDEST PUSH8 0xDE0B6B3A7640000 PUSH1 0x18 DUP4 PUSH2 0xA72 SWAP2 SWAP1 PUSH2 0x19DE JUMP JUMPDEST PUSH2 0xA7C SWAP2 SWAP1 PUSH2 0x19DE JUMP JUMPDEST PUSH1 0x2 PUSH1 0x0 DUP6 PUSH20 0xFFFFFFFFFFFFFFFFFFFFFFFFFFFFFFFFFFFFFFFF AND PUSH20 0xFFFFFFFFFFFFFFFFFFFFFFFFFFFFFFFFFFFFFFFF AND DUP2 MSTORE PUSH1 0x20 ADD SWAP1 DUP2 MSTORE PUSH1 0x20 ADD PUSH1 0x0 KECCAK256 PUSH1 0x0 ADD DUP2 SWAP1 SSTORE POP PUSH1 0x2 PUSH1 0x0 DUP5 PUSH20 0xFFFFFFFFFFFFFFFFFFFFFFFFFFFFFFFFFFFFFFFF AND PUSH20 0xFFFFFFFFFFFFFFFFFFFFFFFFFFFFFFFFFFFFFFFF AND DUP2 MSTORE PUSH1 0x20 ADD SWAP1 DUP2 MSTORE PUSH1 0x20 ADD PUSH1 0x0 KECCAK256 PUSH1 0x0 ADD SLOAD PUSH1 0x2 PUSH1 0x0 DUP6 PUSH20 0xFFFFFFFFFFFFFFFFFFFFFFFFFFFFFFFFFFFFFFFF AND PUSH20 0xFFFFFFFFFFFFFFFFFFFFFFFFFFFFFFFFFFFFFFFF AND DUP2 MSTORE PUSH1 0x20 ADD SWAP1 DUP2 MSTORE PUSH1 0x20 ADD PUSH1 0x0 KECCAK256 PUSH1 0x1 ADD DUP2 SWAP1 SSTORE POP PUSH2 0x3E8 PUSH1 0x3C DUP1 PUSH1 0x18 DUP5 PUSH2 0xB5E SWAP2 SWAP1 PUSH2 0x19DE JUMP JUMPDEST PUSH2 0xB68 SWAP2 SWAP1 PUSH2 0x19DE JUMP JUMPDEST PUSH2 0xB72 SWAP2 SWAP1 PUSH2 0x19DE JUMP JUMPDEST PUSH2 0xB7C SWAP2 SWAP1 PUSH2 0x19DE JUMP JUMPDEST PUSH1 0x2 PUSH1 0x0 DUP6 PUSH20 0xFFFFFFFFFFFFFFFFFFFFFFFFFFFFFFFFFFFFFFFF AND PUSH20 0xFFFFFFFFFFFFFFFFFFFFFFFFFFFFFFFFFFFFFFFF AND DUP2 MSTORE PUSH1 0x20 ADD SWAP1 DUP2 MSTORE PUSH1 0x20 ADD PUSH1 0x0 KECCAK256 PUSH1 0x2 ADD DUP2 SWAP1 SSTORE POP DUP3 PUSH20 0xFFFFFFFFFFFFFFFFFFFFFFFFFFFFFFFFFFFFFFFF AND PUSH32 0xE8CF5022E5945BF3364B2718570D9532E694E17592C9949ED04EE353CDF8BFC PUSH1 0x2 PUSH1 0x0 DUP7 PUSH20 0xFFFFFFFFFFFFFFFFFFFFFFFFFFFFFFFFFFFFFFFF AND PUSH20 0xFFFFFFFFFFFFFFFFFFFFFFFFFFFFFFFFFFFFFFFF AND DUP2 MSTORE PUSH1 0x20 ADD SWAP1 DUP2 MSTORE PUSH1 0x20 ADD PUSH1 0x0 KECCAK256 PUSH1 0x0 ADD SLOAD PUSH1 0x40 MLOAD PUSH2 0xC4A SWAP2 SWAP1 PUSH2 0x16F9 JUMP JUMPDEST PUSH1 0x40 MLOAD DUP1 SWAP2 SUB SWAP1 LOG2 POP POP POP JUMP JUMPDEST PUSH2 0xC5F PUSH2 0x1212 JUMP JUMPDEST PUSH1 0x0 PUSH1 0x2 PUSH1 0x0 DUP4 PUSH20 0xFFFFFFFFFFFFFFFFFFFFFFFFFFFFFFFFFFFFFFFF AND PUSH20 0xFFFFFFFFFFFFFFFFFFFFFFFFFFFFFFFFFFFFFFFF AND DUP2 MSTORE PUSH1 0x20 ADD SWAP1 DUP2 MSTORE PUSH1 0x20 ADD PUSH1 0x0 KECCAK256 PUSH1 0x0 ADD SLOAD GT PUSH2 0xCE4 JUMPI PUSH1 0x40 MLOAD PUSH32 0x8C379A000000000000000000000000000000000000000000000000000000000 DUP2 MSTORE PUSH1 0x4 ADD PUSH2 0xCDB SWAP1 PUSH2 0x1B0C JUMP JUMPDEST PUSH1 0x40 MLOAD DUP1 SWAP2 SUB SWAP1 REVERT JUMPDEST PUSH1 0x0 PUSH1 0x2 PUSH1 0x0 DUP4 PUSH20 0xFFFFFFFFFFFFFFFFFFFFFFFFFFFFFFFFFFFFFFFF AND PUSH20 0xFFFFFFFFFFFFFFFFFFFFFFFFFFFFFFFFFFFFFFFF AND DUP2 MSTORE PUSH1 0x20 ADD SWAP1 DUP2 MSTORE PUSH1 0x20 ADD PUSH1 0x0 KECCAK256 PUSH1 0x0 ADD DUP2 SWAP1 SSTORE POP PUSH1 0x0 PUSH1 0x2 PUSH1 0x0 DUP4 PUSH20 0xFFFFFFFFFFFFFFFFFFFFFFFFFFFFFFFFFFFFFFFF AND PUSH20 0xFFFFFFFFFFFFFFFFFFFFFFFFFFFFFFFFFFFFFFFF AND DUP2 MSTORE PUSH1 0x20 ADD SWAP1 DUP2 MSTORE PUSH1 0x20 ADD PUSH1 0x0 KECCAK256 PUSH1 0x1 ADD DUP2 SWAP1 SSTORE POP PUSH1 0x0 PUSH1 0x2 PUSH1 0x0 DUP4 PUSH20 0xFFFFFFFFFFFFFFFFFFFFFFFFFFFFFFFFFFFFFFFF AND PUSH20 0xFFFFFFFFFFFFFFFFFFFFFFFFFFFFFFFFFFFFFFFF AND DUP2 MSTORE PUSH1 0x20 ADD SWAP1 DUP2 MSTORE PUSH1 0x20 ADD PUSH1 0x0 KECCAK256 PUSH1 0x2 ADD DUP2 SWAP1 SSTORE POP DUP1 PUSH20 0xFFFFFFFFFFFFFFFFFFFFFFFFFFFFFFFFFFFFFFFF AND PUSH32 0xE8CF5022E5945BF3364B2718570D9532E694E17592C9949ED04EE353CDF8BFC PUSH1 0x2 PUSH1 0x0 DUP5 PUSH20 0xFFFFFFFFFFFFFFFFFFFFFFFFFFFFFFFFFFFFFFFF AND PUSH20 0xFFFFFFFFFFFFFFFFFFFFFFFFFFFFFFFFFFFFFFFF AND DUP2 MSTORE PUSH1 0x20 ADD SWAP1 DUP2 MSTORE PUSH1 0x20 ADD PUSH1 0x0 KECCAK256 PUSH1 0x0 ADD SLOAD PUSH1 0x40 MLOAD PUSH2 0xE44 SWAP2 SWAP1 PUSH2 0x16F9 JUMP JUMPDEST PUSH1 0x40 MLOAD DUP1 SWAP2 SUB SWAP1 LOG2 POP JUMP JUMPDEST PUSH2 0xE57 PUSH2 0x1212 JUMP JUMPDEST PUSH1 0x0 PUSH20 0xFFFFFFFFFFFFFFFFFFFFFFFFFFFFFFFFFFFFFFFF AND DUP2 PUSH20 0xFFFFFFFFFFFFFFFFFFFFFFFFFFFFFFFFFFFFFFFF AND SUB PUSH2 0xEC6 JUMPI PUSH1 0x40 MLOAD PUSH32 0x8C379A000000000000000000000000000000000000000000000000000000000 DUP2 MSTORE PUSH1 0x4 ADD PUSH2 0xEBD SWAP1 PUSH2 0x1B9E JUMP JUMPDEST PUSH1 0x40 MLOAD DUP1 SWAP2 SUB SWAP1 REVERT JUMPDEST PUSH2 0xECF DUP2 PUSH2 0x1290 JUMP JUMPDEST POP JUMP JUMPDEST PUSH1 0x0 DUP2 PUSH1 0x1 SLOAD PUSH2 0xEE2 SWAP2 SWAP1 PUSH2 0x1A20 JUMP JUMPDEST TIMESTAMP LT ISZERO PUSH2 0xEFE JUMPI PUSH1 0x1 SLOAD TIMESTAMP PUSH2 0xEF7 SWAP2 SWAP1 PUSH2 0x193E JUMP JUMPDEST SWAP1 POP PUSH2 0xF02 JUMP JUMPDEST DUP2 SWAP1 POP JUMPDEST SWAP2 SWAP1 POP JUMP JUMPDEST PUSH1 0x0 PUSH2 0xF47 PUSH1 0x40 MLOAD DUP1 PUSH1 0x40 ADD PUSH1 0x40 MSTORE DUP1 PUSH1 0x12 DUP2 MSTORE PUSH1 0x20 ADD PUSH32 0x676574417661696C61626C65546F6B656E730000000000000000000000000000 DUP2 MSTORE POP PUSH2 0x10DD JUMP JUMPDEST PUSH2 0xF86 PUSH1 0x40 MLOAD DUP1 PUSH1 0x40 ADD PUSH1 0x40 MSTORE DUP1 PUSH1 0xE DUP2 MSTORE PUSH1 0x20 ADD PUSH32 0x5F74696D65506173736564202573000000000000000000000000000000000000 DUP2 MSTORE POP DUP7 PUSH2 0x1176 JUMP JUMPDEST PUSH2 0xFC5 PUSH1 0x40 MLOAD DUP1 PUSH1 0x40 ADD PUSH1 0x40 MSTORE DUP1 PUSH1 0x12 DUP2 MSTORE PUSH1 0x20 ADD PUSH32 0x5F72656D61696E696E67436F696E732025730000000000000000000000000000 DUP2 MSTORE POP DUP6 PUSH2 0x1176 JUMP JUMPDEST PUSH2 0x1004 PUSH1 0x40 MLOAD DUP1 PUSH1 0x40 ADD PUSH1 0x40 MSTORE DUP1 PUSH1 0xA DUP2 MSTORE PUSH1 0x20 ADD PUSH32 0x5F737570706C7920257300000000000000000000000000000000000000000000 DUP2 MSTORE POP DUP5 PUSH2 0x1176 JUMP JUMPDEST PUSH1 0x0 DUP3 DUP5 DUP8 PUSH2 0x1013 SWAP2 SWAP1 PUSH2 0x19DE JUMP JUMPDEST PUSH2 0x101D SWAP2 SWAP1 PUSH2 0x1BED JUMP JUMPDEST SWAP1 POP DUP5 DUP5 PUSH2 0x102B SWAP2 SWAP1 PUSH2 0x193E JUMP JUMPDEST DUP2 PUSH2 0x1036 SWAP2 SWAP1 PUSH2 0x193E JUMP JUMPDEST SWAP2 POP POP SWAP5 SWAP4 POP POP POP POP JUMP JUMPDEST PUSH1 0x0 DUP2 DUP4 PUSH2 0x104F SWAP2 SWAP1 PUSH2 0x193E JUMP JUMPDEST SWAP1 POP SWAP3 SWAP2 POP POP JUMP JUMPDEST PUSH2 0x10D8 DUP4 PUSH4 0xA9059CBB PUSH1 0xE0 SHL DUP5 DUP5 PUSH1 0x40 MLOAD PUSH1 0x24 ADD PUSH2 0x1076 SWAP3 SWAP2 SWAP1 PUSH2 0x1C1E JUMP JUMPDEST PUSH1 0x40 MLOAD PUSH1 0x20 DUP2 DUP4 SUB SUB DUP2 MSTORE SWAP1 PUSH1 0x40 MSTORE SWAP1 PUSH28 0xFFFFFFFFFFFFFFFFFFFFFFFFFFFFFFFFFFFFFFFFFFFFFFFFFFFFFFFF NOT AND PUSH1 0x20 DUP3 ADD DUP1 MLOAD PUSH28 0xFFFFFFFFFFFFFFFFFFFFFFFFFFFFFFFFFFFFFFFFFFFFFFFFFFFFFFFF DUP4 DUP2 DUP4 AND OR DUP4 MSTORE POP POP POP POP PUSH2 0x1354 JUMP JUMPDEST POP POP POP JUMP JUMPDEST PUSH2 0x1173 DUP2 PUSH1 0x40 MLOAD PUSH1 0x24 ADD PUSH2 0x10F1 SWAP2 SWAP1 PUSH2 0x1CC6 JUMP JUMPDEST PUSH1 0x40 MLOAD PUSH1 0x20 DUP2 DUP4 SUB SUB DUP2 MSTORE SWAP1 PUSH1 0x40 MSTORE PUSH32 0x41304FAC00000000000000000000000000000000000000000000000000000000 PUSH28 0xFFFFFFFFFFFFFFFFFFFFFFFFFFFFFFFFFFFFFFFFFFFFFFFFFFFFFFFF NOT AND PUSH1 0x20 DUP3 ADD DUP1 MLOAD PUSH28 0xFFFFFFFFFFFFFFFFFFFFFFFFFFFFFFFFFFFFFFFFFFFFFFFFFFFFFFFF DUP4 DUP2 DUP4 AND OR DUP4 MSTORE POP POP POP POP PUSH2 0x141B JUMP JUMPDEST POP JUMP JUMPDEST PUSH2 0x120E DUP3 DUP3 PUSH1 0x40 MLOAD PUSH1 0x24 ADD PUSH2 0x118C SWAP3 SWAP2 SWAP1 PUSH2 0x1CE8 JUMP JUMPDEST PUSH1 0x40 MLOAD PUSH1 0x20 DUP2 DUP4 SUB SUB DUP2 MSTORE SWAP1 PUSH1 0x40 MSTORE PUSH32 0xB60E72CC00000000000000000000000000000000000000000000000000000000 PUSH28 0xFFFFFFFFFFFFFFFFFFFFFFFFFFFFFFFFFFFFFFFFFFFFFFFFFFFFFFFF NOT AND PUSH1 0x20 DUP3 ADD DUP1 MLOAD PUSH28 0xFFFFFFFFFFFFFFFFFFFFFFFFFFFFFFFFFFFFFFFFFFFFFFFFFFFFFFFF DUP4 DUP2 DUP4 AND OR DUP4 MSTORE POP POP POP POP PUSH2 0x141B JUMP JUMPDEST POP POP JUMP JUMPDEST PUSH2 0x121A PUSH2 0x1444 JUMP JUMPDEST PUSH20 0xFFFFFFFFFFFFFFFFFFFFFFFFFFFFFFFFFFFFFFFF AND PUSH2 0x1238 PUSH2 0x61A JUMP JUMPDEST PUSH20 0xFFFFFFFFFFFFFFFFFFFFFFFFFFFFFFFFFFFFFFFF AND EQ PUSH2 0x128E JUMPI PUSH1 0x40 MLOAD PUSH32 0x8C379A000000000000000000000000000000000000000000000000000000000 DUP2 MSTORE PUSH1 0x4 ADD PUSH2 0x1285 SWAP1 PUSH2 0x1D64 JUMP JUMPDEST PUSH1 0x40 MLOAD DUP1 SWAP2 SUB SWAP1 REVERT JUMPDEST JUMP JUMPDEST PUSH1 0x0 DUP1 PUSH1 0x0 SWAP1 SLOAD SWAP1 PUSH2 0x100 EXP SWAP1 DIV PUSH20 0xFFFFFFFFFFFFFFFFFFFFFFFFFFFFFFFFFFFFFFFF AND SWAP1 POP DUP2 PUSH1 0x0 DUP1 PUSH2 0x100 EXP DUP2 SLOAD DUP2 PUSH20 0xFFFFFFFFFFFFFFFFFFFFFFFFFFFFFFFFFFFFFFFF MUL NOT AND SWAP1 DUP4 PUSH20 0xFFFFFFFFFFFFFFFFFFFFFFFFFFFFFFFFFFFFFFFF AND MUL OR SWAP1 SSTORE POP DUP2 PUSH20 0xFFFFFFFFFFFFFFFFFFFFFFFFFFFFFFFFFFFFFFFF AND DUP2 PUSH20 0xFFFFFFFFFFFFFFFFFFFFFFFFFFFFFFFFFFFFFFFF AND PUSH32 0x8BE0079C531659141344CD1FD0A4F28419497F9722A3DAAFE3B4186F6B6457E0 PUSH1 0x40 MLOAD PUSH1 0x40 MLOAD DUP1 SWAP2 SUB SWAP1 LOG3 POP POP JUMP JUMPDEST PUSH1 0x0 PUSH2 0x13B6 DUP3 PUSH1 0x40 MLOAD DUP1 PUSH1 0x40 ADD PUSH1 0x40 MSTORE DUP1 PUSH1 0x20 DUP2 MSTORE PUSH1 0x20 ADD PUSH32 0x5361666545524332303A206C6F772D6C6576656C2063616C6C206661696C6564 DUP2 MSTORE POP DUP6 PUSH20 0xFFFFFFFFFFFFFFFFFFFFFFFFFFFFFFFFFFFFFFFF AND PUSH2 0x144C SWAP1 SWAP3 SWAP2 SWAP1 PUSH4 0xFFFFFFFF AND JUMP JUMPDEST SWAP1 POP PUSH1 0x0 DUP2 MLOAD GT ISZERO PUSH2 0x1416 JUMPI DUP1 DUP1 PUSH1 0x20 ADD SWAP1 MLOAD DUP2 ADD SWAP1 PUSH2 0x13D6 SWAP2 SWAP1 PUSH2 0x1DBC JUMP JUMPDEST PUSH2 0x1415 JUMPI PUSH1 0x40 MLOAD PUSH32 0x8C379A000000000000000000000000000000000000000000000000000000000 DUP2 MSTORE PUSH1 0x4 ADD PUSH2 0x140C SWAP1 PUSH2 0x1E5B JUMP JUMPDEST PUSH1 0x40 MLOAD DUP1 SWAP2 SUB SWAP1 REVERT JUMPDEST JUMPDEST POP POP POP JUMP JUMPDEST PUSH1 0x0 DUP2 MLOAD SWAP1 POP PUSH1 0x0 PUSH11 0x636F6E736F6C652E6C6F67 SWAP1 POP PUSH1 0x20 DUP4 ADD PUSH1 0x0 DUP1 DUP5 DUP4 DUP6 GAS STATICCALL POP POP POP POP POP JUMP JUMPDEST PUSH1 0x0 CALLER SWAP1 POP SWAP1 JUMP JUMPDEST PUSH1 0x60 PUSH2 0x145B DUP5 DUP5 PUSH1 0x0 DUP6 PUSH2 0x1464 JUMP JUMPDEST SWAP1 POP SWAP4 SWAP3 POP POP POP JUMP JUMPDEST PUSH1 0x60 DUP3 SELFBALANCE LT ISZERO PUSH2 0x14A9 JUMPI PUSH1 0x40 MLOAD PUSH32 0x8C379A000000000000000000000000000000000000000000000000000000000 DUP2 MSTORE PUSH1 0x4 ADD PUSH2 0x14A0 SWAP1 PUSH2 0x1EED JUMP JUMPDEST PUSH1 0x40 MLOAD DUP1 SWAP2 SUB SWAP1 REVERT JUMPDEST PUSH1 0x0 DUP1 DUP7 PUSH20 0xFFFFFFFFFFFFFFFFFFFFFFFFFFFFFFFFFFFFFFFF AND DUP6 DUP8 PUSH1 0x40 MLOAD PUSH2 0x14D2 SWAP2 SWAP1 PUSH2 0x1F54 JUMP JUMPDEST PUSH1 0x0 PUSH1 0x40 MLOAD DUP1 DUP4 SUB DUP2 DUP6 DUP8 GAS CALL SWAP3 POP POP POP RETURNDATASIZE DUP1 PUSH1 0x0 DUP2 EQ PUSH2 0x150F JUMPI PUSH1 0x40 MLOAD SWAP2 POP PUSH1 0x1F NOT PUSH1 0x3F RETURNDATASIZE ADD AND DUP3 ADD PUSH1 0x40 MSTORE RETURNDATASIZE DUP3 MSTORE RETURNDATASIZE PUSH1 0x0 PUSH1 0x20 DUP5 ADD RETURNDATACOPY PUSH2 0x1514 JUMP JUMPDEST PUSH1 0x60 SWAP2 POP JUMPDEST POP SWAP2 POP SWAP2 POP PUSH2 0x1525 DUP8 DUP4 DUP4 DUP8 PUSH2 0x1531 JUMP JUMPDEST SWAP3 POP POP POP SWAP5 SWAP4 POP POP POP POP JUMP JUMPDEST PUSH1 0x60 DUP4 ISZERO PUSH2 0x1593 JUMPI PUSH1 0x0 DUP4 MLOAD SUB PUSH2 0x158B JUMPI PUSH2 0x154B DUP6 PUSH2 0x15A6 JUMP JUMPDEST PUSH2 0x158A JUMPI PUSH1 0x40 MLOAD PUSH32 0x8C379A000000000000000000000000000000000000000000000000000000000 DUP2 MSTORE PUSH1 0x4 ADD PUSH2 0x1581 SWAP1 PUSH2 0x1FB7 JUMP JUMPDEST PUSH1 0x40 MLOAD DUP1 SWAP2 SUB SWAP1 REVERT JUMPDEST JUMPDEST DUP3 SWAP1 POP PUSH2 0x159E JUMP JUMPDEST PUSH2 0x159D DUP4 DUP4 PUSH2 0x15C9 JUMP JUMPDEST JUMPDEST SWAP5 SWAP4 POP POP POP POP JUMP JUMPDEST PUSH1 0x0 DUP1 DUP3 PUSH20 0xFFFFFFFFFFFFFFFFFFFFFFFFFFFFFFFFFFFFFFFF AND EXTCODESIZE GT SWAP1 POP SWAP2 SWAP1 POP JUMP JUMPDEST PUSH1 0x0 DUP3 MLOAD GT ISZERO PUSH2 0x15DC JUMPI DUP2 MLOAD DUP1 DUP4 PUSH1 0x20 ADD REVERT JUMPDEST DUP1 PUSH1 0x40 MLOAD PUSH32 0x8C379A000000000000000000000000000000000000000000000000000000000 DUP2 MSTORE PUSH1 0x4 ADD PUSH2 0x1610 SWAP2 SWAP1 PUSH2 0x1CC6 JUMP JUMPDEST PUSH1 0x40 MLOAD DUP1 SWAP2 SUB SWAP1 REVERT JUMPDEST PUSH1 0x0 DUP1 REVERT JUMPDEST PUSH1 0x0 PUSH20 0xFFFFFFFFFFFFFFFFFFFFFFFFFFFFFFFFFFFFFFFF DUP3 AND SWAP1 POP SWAP2 SWAP1 POP JUMP JUMPDEST PUSH1 0x0 PUSH2 0x1649 DUP3 PUSH2 0x161E JUMP JUMPDEST SWAP1 POP SWAP2 SWAP1 POP JUMP JUMPDEST PUSH2 0x1659 DUP2 PUSH2 0x163E JUMP JUMPDEST DUP2 EQ PUSH2 0x1664 JUMPI PUSH1 0x0 DUP1 REVERT JUMPDEST POP JUMP JUMPDEST PUSH1 0x0 DUP2 CALLDATALOAD SWAP1 POP PUSH2 0x1676 DUP2 PUSH2 0x1650 JUMP JUMPDEST SWAP3 SWAP2 POP POP JUMP JUMPDEST PUSH1 0x0 PUSH1 0x20 DUP3 DUP5 SUB SLT ISZERO PUSH2 0x1692 JUMPI PUSH2 0x1691 PUSH2 0x1619 JUMP JUMPDEST JUMPDEST PUSH1 0x0 PUSH2 0x16A0 DUP5 DUP3 DUP6 ADD PUSH2 0x1667 JUMP JUMPDEST SWAP2 POP POP SWAP3 SWAP2 POP POP JUMP JUMPDEST PUSH1 0x0 DUP2 SWAP1 POP SWAP2 SWAP1 POP JUMP JUMPDEST PUSH2 0x16BC DUP2 PUSH2 0x16A9 JUMP JUMPDEST DUP3 MSTORE POP POP JUMP JUMPDEST PUSH1 0x0 PUSH1 0x60 DUP3 ADD SWAP1 POP PUSH2 0x16D7 PUSH1 0x0 DUP4 ADD DUP7 PUSH2 0x16B3 JUMP JUMPDEST PUSH2 0x16E4 PUSH1 0x20 DUP4 ADD DUP6 PUSH2 0x16B3 JUMP JUMPDEST PUSH2 0x16F1 PUSH1 0x40 DUP4 ADD DUP5 PUSH2 0x16B3 JUMP JUMPDEST SWAP5 SWAP4 POP POP POP POP JUMP JUMPDEST PUSH1 0x0 PUSH1 0x20 DUP3 ADD SWAP1 POP PUSH2 0x170E PUSH1 0x0 DUP4 ADD DUP5 PUSH2 0x16B3 JUMP JUMPDEST SWAP3 SWAP2 POP POP JUMP JUMPDEST PUSH2 0x171D DUP2 PUSH2 0x163E JUMP JUMPDEST DUP3 MSTORE POP POP JUMP JUMPDEST PUSH1 0x0 PUSH1 0x20 DUP3 ADD SWAP1 POP PUSH2 0x1738 PUSH1 0x0 DUP4 ADD DUP5 PUSH2 0x1714 JUMP JUMPDEST SWAP3 SWAP2 POP POP JUMP JUMPDEST PUSH2 0x1747 DUP2 PUSH2 0x16A9 JUMP JUMPDEST DUP2 EQ PUSH2 0x1752 JUMPI PUSH1 0x0 DUP1 REVERT JUMPDEST POP JUMP JUMPDEST PUSH1 0x0 DUP2 CALLDATALOAD SWAP1 POP PUSH2 0x1764 DUP2 PUSH2 0x173E JUMP JUMPDEST SWAP3 SWAP2 POP POP JUMP JUMPDEST PUSH1 0x0 DUP1 PUSH1 0x40 DUP4 DUP6 SUB SLT ISZERO PUSH2 0x1781 JUMPI PUSH2 0x1780 PUSH2 0x1619 JUMP JUMPDEST JUMPDEST PUSH1 0x0 PUSH2 0x178F DUP6 DUP3 DUP7 ADD PUSH2 0x1667 JUMP JUMPDEST SWAP3 POP POP PUSH1 0x20 PUSH2 0x17A0 DUP6 DUP3 DUP7 ADD PUSH2 0x1755 JUMP JUMPDEST SWAP2 POP POP SWAP3 POP SWAP3 SWAP1 POP JUMP JUMPDEST PUSH1 0x0 DUP1 PUSH1 0x0 PUSH1 0x60 DUP5 DUP7 SUB SLT ISZERO PUSH2 0x17C3 JUMPI PUSH2 0x17C2 PUSH2 0x1619 JUMP JUMPDEST JUMPDEST PUSH1 0x0 PUSH2 0x17D1 DUP7 DUP3 DUP8 ADD PUSH2 0x1667 JUMP JUMPDEST SWAP4 POP POP PUSH1 0x20 PUSH2 0x17E2 DUP7 DUP3 DUP8 ADD PUSH2 0x1755 JUMP JUMPDEST SWAP3 POP POP PUSH1 0x40 PUSH2 0x17F3 DUP7 DUP3 DUP8 ADD PUSH2 0x1755 JUMP JUMPDEST SWAP2 POP POP SWAP3 POP SWAP3 POP SWAP3 JUMP JUMPDEST PUSH1 0x0 DUP3 DUP3 MSTORE PUSH1 0x20 DUP3 ADD SWAP1 POP SWAP3 SWAP2 POP POP JUMP JUMPDEST PUSH32 0x76657374696E67206861736E7420737461727465642079657400000000000000 PUSH1 0x0 DUP3 ADD MSTORE POP JUMP JUMPDEST PUSH1 0x0 PUSH2 0x1844 PUSH1 0x19 DUP4 PUSH2 0x17FD JUMP JUMPDEST SWAP2 POP PUSH2 0x184F DUP3 PUSH2 0x180E JUMP JUMPDEST PUSH1 0x20 DUP3 ADD SWAP1 POP SWAP2 SWAP1 POP JUMP JUMPDEST PUSH1 0x0 PUSH1 0x20 DUP3 ADD SWAP1 POP DUP2 DUP2 SUB PUSH1 0x0 DUP4 ADD MSTORE PUSH2 0x1873 DUP2 PUSH2 0x1837 JUMP JUMPDEST SWAP1 POP SWAP2 SWAP1 POP JUMP JUMPDEST PUSH32 0x7573657220686173206E6F20616C6C6F636174696F6E00000000000000000000 PUSH1 0x0 DUP3 ADD MSTORE POP JUMP JUMPDEST PUSH1 0x0 PUSH2 0x18B0 PUSH1 0x16 DUP4 PUSH2 0x17FD JUMP JUMPDEST SWAP2 POP PUSH2 0x18BB DUP3 PUSH2 0x187A JUMP JUMPDEST PUSH1 0x20 DUP3 ADD SWAP1 POP SWAP2 SWAP1 POP JUMP JUMPDEST PUSH1 0x0 PUSH1 0x20 DUP3 ADD SWAP1 POP DUP2 DUP2 SUB PUSH1 0x0 DUP4 ADD MSTORE PUSH2 0x18DF DUP2 PUSH2 0x18A3 JUMP JUMPDEST SWAP1 POP SWAP2 SWAP1 POP JUMP JUMPDEST PUSH1 0x0 PUSH1 0x40 DUP3 ADD SWAP1 POP PUSH2 0x18FB PUSH1 0x0 DUP4 ADD DUP6 PUSH2 0x16B3 JUMP JUMPDEST PUSH2 0x1908 PUSH1 0x20 DUP4 ADD DUP5 PUSH2 0x16B3 JUMP JUMPDEST SWAP4 SWAP3 POP POP POP JUMP JUMPDEST PUSH32 0x4E487B7100000000000000000000000000000000000000000000000000000000 PUSH1 0x0 MSTORE PUSH1 0x11 PUSH1 0x4 MSTORE PUSH1 0x24 PUSH1 0x0 REVERT JUMPDEST PUSH1 0x0 PUSH2 0x1949 DUP3 PUSH2 0x16A9 JUMP JUMPDEST SWAP2 POP PUSH2 0x1954 DUP4 PUSH2 0x16A9 JUMP JUMPDEST SWAP3 POP DUP3 DUP3 SUB SWAP1 POP DUP2 DUP2 GT ISZERO PUSH2 0x196C JUMPI PUSH2 0x196B PUSH2 0x190F JUMP JUMPDEST JUMPDEST SWAP3 SWAP2 POP POP JUMP JUMPDEST PUSH32 0x696E766573746F7220646F65736E74206861766520616C6C6F636174696F6E00 PUSH1 0x0 DUP3 ADD MSTORE POP JUMP JUMPDEST PUSH1 0x0 PUSH2 0x19A8 PUSH1 0x1F DUP4 PUSH2 0x17FD JUMP JUMPDEST SWAP2 POP PUSH2 0x19B3 DUP3 PUSH2 0x1972 JUMP JUMPDEST PUSH1 0x20 DUP3 ADD SWAP1 POP SWAP2 SWAP1 POP JUMP JUMPDEST PUSH1 0x0 PUSH1 0x20 DUP3 ADD SWAP1 POP DUP2 DUP2 SUB PUSH1 0x0 DUP4 ADD MSTORE PUSH2 0x19D7 DUP2 PUSH2 0x199B JUMP JUMPDEST SWAP1 POP SWAP2 SWAP1 POP JUMP JUMPDEST PUSH1 0x0 PUSH2 0x19E9 DUP3 PUSH2 0x16A9 JUMP JUMPDEST SWAP2 POP PUSH2 0x19F4 DUP4 PUSH2 0x16A9 JUMP JUMPDEST SWAP3 POP DUP3 DUP3 MUL PUSH2 0x1A02 DUP2 PUSH2 0x16A9 JUMP JUMPDEST SWAP2 POP DUP3 DUP3 DIV DUP5 EQ DUP4 ISZERO OR PUSH2 0x1A19 JUMPI PUSH2 0x1A18 PUSH2 0x190F JUMP JUMPDEST JUMPDEST POP SWAP3 SWAP2 POP POP JUMP JUMPDEST PUSH1 0x0 PUSH2 0x1A2B DUP3 PUSH2 0x16A9 JUMP JUMPDEST SWAP2 POP PUSH2 0x1A36 DUP4 PUSH2 0x16A9 JUMP JUMPDEST SWAP3 POP DUP3 DUP3 ADD SWAP1 POP DUP1 DUP3 GT ISZERO PUSH2 0x1A4E JUMPI PUSH2 0x1A4D PUSH2 0x190F JUMP JUMPDEST JUMPDEST SWAP3 SWAP2 POP POP JUMP JUMPDEST PUSH32 0x696E766573746F7220616C72656164792068617320616C6C6F636174696F6E00 PUSH1 0x0 DUP3 ADD MSTORE POP JUMP JUMPDEST PUSH1 0x0 PUSH2 0x1A8A PUSH1 0x1F DUP4 PUSH2 0x17FD JUMP JUMPDEST SWAP2 POP PUSH2 0x1A95 DUP3 PUSH2 0x1A54 JUMP JUMPDEST PUSH1 0x20 DUP3 ADD SWAP1 POP SWAP2 SWAP1 POP JUMP JUMPDEST PUSH1 0x0 PUSH1 0x20 DUP3 ADD SWAP1 POP DUP2 DUP2 SUB PUSH1 0x0 DUP4 ADD MSTORE PUSH2 0x1AB9 DUP2 PUSH2 0x1A7D JUMP JUMPDEST SWAP1 POP SWAP2 SWAP1 POP JUMP JUMPDEST PUSH32 0x696E766573746F7220616C72656164792064697361626C656400000000000000 PUSH1 0x0 DUP3 ADD MSTORE POP JUMP JUMPDEST PUSH1 0x0 PUSH2 0x1AF6 PUSH1 0x19 DUP4 PUSH2 0x17FD JUMP JUMPDEST SWAP2 POP PUSH2 0x1B01 DUP3 PUSH2 0x1AC0 JUMP JUMPDEST PUSH1 0x20 DUP3 ADD SWAP1 POP SWAP2 SWAP1 POP JUMP JUMPDEST PUSH1 0x0 PUSH1 0x20 DUP3 ADD SWAP1 POP DUP2 DUP2 SUB PUSH1 0x0 DUP4 ADD MSTORE PUSH2 0x1B25 DUP2 PUSH2 0x1AE9 JUMP JUMPDEST SWAP1 POP SWAP2 SWAP1 POP JUMP JUMPDEST PUSH32 0x4F776E61626C653A206E6577206F776E657220697320746865207A65726F2061 PUSH1 0x0 DUP3 ADD MSTORE PUSH32 0x6464726573730000000000000000000000000000000000000000000000000000 PUSH1 0x20 DUP3 ADD MSTORE POP JUMP JUMPDEST PUSH1 0x0 PUSH2 0x1B88 PUSH1 0x26 DUP4 PUSH2 0x17FD JUMP JUMPDEST SWAP2 POP PUSH2 0x1B93 DUP3 PUSH2 0x1B2C JUMP JUMPDEST PUSH1 0x40 DUP3 ADD SWAP1 POP SWAP2 SWAP1 POP JUMP JUMPDEST PUSH1 0x0 PUSH1 0x20 DUP3 ADD SWAP1 POP DUP2 DUP2 SUB PUSH1 0x0 DUP4 ADD MSTORE PUSH2 0x1BB7 DUP2 PUSH2 0x1B7B JUMP JUMPDEST SWAP1 POP SWAP2 SWAP1 POP JUMP JUMPDEST PUSH32 0x4E487B7100000000000000000000000000000000000000000000000000000000 PUSH1 0x0 MSTORE PUSH1 0x12 PUSH1 0x4 MSTORE PUSH1 0x24 PUSH1 0x0 REVERT JUMPDEST PUSH1 0x0 PUSH2 0x1BF8 DUP3 PUSH2 0x16A9 JUMP JUMPDEST SWAP2 POP PUSH2 0x1C03 DUP4 PUSH2 0x16A9 JUMP JUMPDEST SWAP3 POP DUP3 PUSH2 0x1C13 JUMPI PUSH2 0x1C12 PUSH2 0x1BBE JUMP JUMPDEST JUMPDEST DUP3 DUP3 DIV SWAP1 POP SWAP3 SWAP2 POP POP JUMP JUMPDEST PUSH1 0x0 PUSH1 0x40 DUP3 ADD SWAP1 POP PUSH2 0x1C33 PUSH1 0x0 DUP4 ADD DUP6 PUSH2 0x1714 JUMP JUMPDEST PUSH2 0x1C40 PUSH1 0x20 DUP4 ADD DUP5 PUSH2 0x16B3 JUMP JUMPDEST SWAP4 SWAP3 POP POP POP JUMP JUMPDEST PUSH1 0x0 DUP2 MLOAD SWAP1 POP SWAP2 SWAP1 POP JUMP JUMPDEST PUSH1 0x0 JUMPDEST DUP4 DUP2 LT ISZERO PUSH2 0x1C70 JUMPI DUP1 DUP3 ADD MLOAD DUP2 DUP5 ADD MSTORE PUSH1 0x20 DUP2 ADD SWAP1 POP PUSH2 0x1C55 JUMP JUMPDEST PUSH1 0x0 DUP5 DUP5 ADD MSTORE POP POP POP POP JUMP JUMPDEST PUSH1 0x0 PUSH1 0x1F NOT PUSH1 0x1F DUP4 ADD AND SWAP1 POP SWAP2 SWAP1 POP JUMP JUMPDEST PUSH1 0x0 PUSH2 0x1C98 DUP3 PUSH2 0x1C47 JUMP JUMPDEST PUSH2 0x1CA2 DUP2 DUP6 PUSH2 0x17FD JUMP JUMPDEST SWAP4 POP PUSH2 0x1CB2 DUP2 DUP6 PUSH1 0x20 DUP7 ADD PUSH2 0x1C52 JUMP JUMPDEST PUSH2 0x1CBB DUP2 PUSH2 0x1C7C JUMP JUMPDEST DUP5 ADD SWAP2 POP POP SWAP3 SWAP2 POP POP JUMP JUMPDEST PUSH1 0x0 PUSH1 0x20 DUP3 ADD SWAP1 POP DUP2 DUP2 SUB PUSH1 0x0 DUP4 ADD MSTORE PUSH2 0x1CE0 DUP2 DUP5 PUSH2 0x1C8D JUMP JUMPDEST SWAP1 POP SWAP3 SWAP2 POP POP JUMP JUMPDEST PUSH1 0x0 PUSH1 0x40 DUP3 ADD SWAP1 POP DUP2 DUP2 SUB PUSH1 0x0 DUP4 ADD MSTORE PUSH2 0x1D02 DUP2 DUP6 PUSH2 0x1C8D JUMP JUMPDEST SWAP1 POP PUSH2 0x1D11 PUSH1 0x20 DUP4 ADD DUP5 PUSH2 0x16B3 JUMP JUMPDEST SWAP4 SWAP3 POP POP POP JUMP JUMPDEST PUSH32 0x4F776E61626C653A2063616C6C6572206973206E6F7420746865206F776E6572 PUSH1 0x0 DUP3 ADD MSTORE POP JUMP JUMPDEST PUSH1 0x0 PUSH2 0x1D4E PUSH1 0x20 DUP4 PUSH2 0x17FD JUMP JUMPDEST SWAP2 POP PUSH2 0x1D59 DUP3 PUSH2 0x1D18 JUMP JUMPDEST PUSH1 0x20 DUP3 ADD SWAP1 POP SWAP2 SWAP1 POP JUMP JUMPDEST PUSH1 0x0 PUSH1 0x20 DUP3 ADD SWAP1 POP DUP2 DUP2 SUB PUSH1 0x0 DUP4 ADD MSTORE PUSH2 0x1D7D DUP2 PUSH2 0x1D41 JUMP JUMPDEST SWAP1 POP SWAP2 SWAP1 POP JUMP JUMPDEST PUSH1 0x0 DUP2 ISZERO ISZERO SWAP1 POP SWAP2 SWAP1 POP JUMP JUMPDEST PUSH2 0x1D99 DUP2 PUSH2 0x1D84 JUMP JUMPDEST DUP2 EQ PUSH2 0x1DA4 JUMPI PUSH1 0x0 DUP1 REVERT JUMPDEST POP JUMP JUMPDEST PUSH1 0x0 DUP2 MLOAD SWAP1 POP PUSH2 0x1DB6 DUP2 PUSH2 0x1D90 JUMP JUMPDEST SWAP3 SWAP2 POP POP JUMP JUMPDEST PUSH1 0x0 PUSH1 0x20 DUP3 DUP5 SUB SLT ISZERO PUSH2 0x1DD2 JUMPI PUSH2 0x1DD1 PUSH2 0x1619 JUMP JUMPDEST JUMPDEST PUSH1 0x0 PUSH2 0x1DE0 DUP5 DUP3 DUP6 ADD PUSH2 0x1DA7 JUMP JUMPDEST SWAP2 POP POP SWAP3 SWAP2 POP POP JUMP JUMPDEST PUSH32 0x5361666545524332303A204552433230206F7065726174696F6E20646964206E PUSH1 0x0 DUP3 ADD MSTORE PUSH32 0x6F74207375636365656400000000000000000000000000000000000000000000 PUSH1 0x20 DUP3 ADD MSTORE POP JUMP JUMPDEST PUSH1 0x0 PUSH2 0x1E45 PUSH1 0x2A DUP4 PUSH2 0x17FD JUMP JUMPDEST SWAP2 POP PUSH2 0x1E50 DUP3 PUSH2 0x1DE9 JUMP JUMPDEST PUSH1 0x40 DUP3 ADD SWAP1 POP SWAP2 SWAP1 POP JUMP JUMPDEST PUSH1 0x0 PUSH1 0x20 DUP3 ADD SWAP1 POP DUP2 DUP2 SUB PUSH1 0x0 DUP4 ADD MSTORE PUSH2 0x1E74 DUP2 PUSH2 0x1E38 JUMP JUMPDEST SWAP1 POP SWAP2 SWAP1 POP JUMP JUMPDEST PUSH32 0x416464726573733A20696E73756666696369656E742062616C616E636520666F PUSH1 0x0 DUP3 ADD MSTORE PUSH32 0x722063616C6C0000000000000000000000000000000000000000000000000000 PUSH1 0x20 DUP3 ADD MSTORE POP JUMP JUMPDEST PUSH1 0x0 PUSH2 0x1ED7 PUSH1 0x26 DUP4 PUSH2 0x17FD JUMP JUMPDEST SWAP2 POP PUSH2 0x1EE2 DUP3 PUSH2 0x1E7B JUMP JUMPDEST PUSH1 0x40 DUP3 ADD SWAP1 POP SWAP2 SWAP1 POP JUMP JUMPDEST PUSH1 0x0 PUSH1 0x20 DUP3 ADD SWAP1 POP DUP2 DUP2 SUB PUSH1 0x0 DUP4 ADD MSTORE PUSH2 0x1F06 DUP2 PUSH2 0x1ECA JUMP JUMPDEST SWAP1 POP SWAP2 SWAP1 POP JUMP JUMPDEST PUSH1 0x0 DUP2 MLOAD SWAP1 POP SWAP2 SWAP1 POP JUMP JUMPDEST PUSH1 0x0 DUP2 SWAP1 POP SWAP3 SWAP2 POP POP JUMP JUMPDEST PUSH1 0x0 PUSH2 0x1F2E DUP3 PUSH2 0x1F0D JUMP JUMPDEST PUSH2 0x1F38 DUP2 DUP6 PUSH2 0x1F18 JUMP JUMPDEST SWAP4 POP PUSH2 0x1F48 DUP2 DUP6 PUSH1 0x20 DUP7 ADD PUSH2 0x1C52 JUMP JUMPDEST DUP1 DUP5 ADD SWAP2 POP POP SWAP3 SWAP2 POP POP JUMP JUMPDEST PUSH1 0x0 PUSH2 0x1F60 DUP3 DUP5 PUSH2 0x1F23 JUMP JUMPDEST SWAP2 POP DUP2 SWAP1 POP SWAP3 SWAP2 POP POP JUMP JUMPDEST PUSH32 0x416464726573733A2063616C6C20746F206E6F6E2D636F6E7472616374000000 PUSH1 0x0 DUP3 ADD MSTORE POP JUMP JUMPDEST PUSH1 0x0 PUSH2 0x1FA1 PUSH1 0x1D DUP4 PUSH2 0x17FD JUMP JUMPDEST SWAP2 POP PUSH2 0x1FAC DUP3 PUSH2 0x1F6B JUMP JUMPDEST PUSH1 0x20 DUP3 ADD SWAP1 POP SWAP2 SWAP1 POP JUMP JUMPDEST PUSH1 0x0 PUSH1 0x20 DUP3 ADD SWAP1 POP DUP2 DUP2 SUB PUSH1 0x0 DUP4 ADD MSTORE PUSH2 0x1FD0 DUP2 PUSH2 0x1F94 JUMP JUMPDEST SWAP1 POP SWAP2 SWAP1 POP JUMP INVALID LOG2 PUSH5 0x6970667358 0x22 SLT KECCAK256 SLOAD 0xB8 DIV 0xEA 0xFC 0xFC PUSH31 0x8ABE9A30815A340D94FDAE39F29B7AFC6F54ABCB1774AC4EE664736F6C6343 STOP ADDMOD GT STOP CALLER "},"methodIdentifiers":{"addInvestor(address,uint256,uint256)":"ced84a71","balances(address)":"27e235e3","disableInvestor(address)":"f142ca5e","getAvailableAmount()":"7bb476f5","getDuration()":"ad2e8c9b","getTotalReleased()":"4b14c0ef","modifyInvestor(address,uint256)":"b34c60da","owner()":"8da5cb5b","renounceOwnership()":"715018a6","startTime()":"78e97925","transferOwnership(address)":"f2fde38b","withdraw()":"3ccfd60b"}}}}}